{
  "abi": [
    {
      "inputs": [],
      "stateMutability": "nonpayable",
      "type": "constructor"
    },
    {
      "anonymous": false,
      "inputs": [
        {
          "indexed": true,
          "internalType": "address",
          "name": "account",
          "type": "address"
        },
        {
          "indexed": true,
          "internalType": "address",
          "name": "operator",
          "type": "address"
        },
        {
          "indexed": false,
          "internalType": "bool",
          "name": "approved",
          "type": "bool"
        }
      ],
      "name": "ApprovalForAll",
      "type": "event"
    },
    {
      "anonymous": false,
      "inputs": [
        {
          "indexed": false,
          "internalType": "address",
          "name": "seller",
          "type": "address"
        },
        {
          "indexed": false,
          "internalType": "address",
          "name": "buyer",
          "type": "address"
        },
        {
          "indexed": false,
          "internalType": "uint256",
          "name": "id",
          "type": "uint256"
        }
      ],
      "name": "BillSentToBuyer",
      "type": "event"
    },
    {
      "anonymous": false,
      "inputs": [
        {
          "indexed": false,
          "internalType": "address",
          "name": "seller",
          "type": "address"
        },
        {
          "indexed": false,
          "internalType": "address",
          "name": "carrier",
          "type": "address"
        },
        {
          "indexed": false,
          "internalType": "uint256",
          "name": "id",
          "type": "uint256"
        }
      ],
      "name": "BillSentToCarreir",
      "type": "event"
    },
    {
      "anonymous": false,
      "inputs": [
        {
          "indexed": false,
          "internalType": "address",
          "name": "by",
          "type": "address"
        },
        {
          "indexed": false,
          "internalType": "uint256",
          "name": "id",
          "type": "uint256"
        }
      ],
      "name": "NewBillGenerated",
      "type": "event"
    },
    {
      "anonymous": false,
      "inputs": [
        {
          "indexed": true,
          "internalType": "address",
          "name": "operator",
          "type": "address"
        },
        {
          "indexed": true,
          "internalType": "address",
          "name": "from",
          "type": "address"
        },
        {
          "indexed": true,
          "internalType": "address",
          "name": "to",
          "type": "address"
        },
        {
          "indexed": false,
          "internalType": "uint256[]",
          "name": "ids",
          "type": "uint256[]"
        },
        {
          "indexed": false,
          "internalType": "uint256[]",
          "name": "values",
          "type": "uint256[]"
        }
      ],
      "name": "TransferBatch",
      "type": "event"
    },
    {
      "anonymous": false,
      "inputs": [
        {
          "indexed": true,
          "internalType": "address",
          "name": "operator",
          "type": "address"
        },
        {
          "indexed": true,
          "internalType": "address",
          "name": "from",
          "type": "address"
        },
        {
          "indexed": true,
          "internalType": "address",
          "name": "to",
          "type": "address"
        },
        {
          "indexed": false,
          "internalType": "uint256",
          "name": "id",
          "type": "uint256"
        },
        {
          "indexed": false,
          "internalType": "uint256",
          "name": "value",
          "type": "uint256"
        }
      ],
      "name": "TransferSingle",
      "type": "event"
    },
    {
      "anonymous": false,
      "inputs": [
        {
          "indexed": false,
          "internalType": "string",
          "name": "value",
          "type": "string"
        },
        {
          "indexed": true,
          "internalType": "uint256",
          "name": "id",
          "type": "uint256"
        }
      ],
      "name": "URI",
      "type": "event"
    },
    {
      "inputs": [
        {
          "internalType": "address",
          "name": "account",
          "type": "address"
        },
        {
          "internalType": "uint256",
          "name": "id",
          "type": "uint256"
        }
      ],
      "name": "balanceOf",
      "outputs": [
        {
          "internalType": "uint256",
          "name": "",
          "type": "uint256"
        }
      ],
      "stateMutability": "view",
      "type": "function"
    },
    {
      "inputs": [
        {
          "internalType": "address[]",
          "name": "accounts",
          "type": "address[]"
        },
        {
          "internalType": "uint256[]",
          "name": "ids",
          "type": "uint256[]"
        }
      ],
      "name": "balanceOfBatch",
      "outputs": [
        {
          "internalType": "uint256[]",
          "name": "",
          "type": "uint256[]"
        }
      ],
      "stateMutability": "view",
      "type": "function"
    },
    {
      "inputs": [
        {
          "components": [
            {
              "components": [
                {
                  "internalType": "string",
                  "name": "physicalAddress",
                  "type": "string"
                },
                {
                  "internalType": "address",
                  "name": "walletAddress",
                  "type": "address"
                }
              ],
              "internalType": "struct BillOfLading.Shipper",
              "name": "shipper",
              "type": "tuple"
            },
            {
              "components": [
                {
                  "internalType": "string",
                  "name": "physicalAddress",
                  "type": "string"
                },
                {
                  "internalType": "address",
                  "name": "walletAddress",
                  "type": "address"
                }
              ],
              "internalType": "struct BillOfLading.Consignee",
              "name": "consignee",
              "type": "tuple"
            },
            {
              "components": [
                {
                  "internalType": "string",
                  "name": "physicalAddress",
                  "type": "string"
                },
                {
                  "internalType": "address",
                  "name": "walletAddress",
                  "type": "address"
                }
              ],
              "internalType": "struct BillOfLading.Carreir",
              "name": "carreir",
              "type": "tuple"
            },
            {
              "internalType": "string",
              "name": "preCarriageBy",
              "type": "string"
            },
            {
              "internalType": "string",
              "name": "placeOfReceiptByPreCarrier",
              "type": "string"
            },
            {
              "internalType": "string",
              "name": "vessel",
              "type": "string"
            },
            {
              "internalType": "string",
              "name": "portOfLoading",
              "type": "string"
            },
            {
              "internalType": "string",
              "name": "portOfDischarge",
              "type": "string"
            },
            {
              "internalType": "string",
              "name": "placeOfDeliveryByOnCarrier",
              "type": "string"
            },
            {
              "internalType": "string",
              "name": "customReference",
              "type": "string"
            },
            {
              "internalType": "uint256",
              "name": "billNumber",
              "type": "uint256"
            },
            {
              "internalType": "string",
              "name": "shipperReference",
              "type": "string"
            },
            {
              "internalType": "string",
              "name": "fAgentsReference",
              "type": "string"
            },
            {
              "internalType": "string",
              "name": "referenceNumber",
              "type": "string"
            },
            {
              "internalType": "string",
              "name": "preCarriagePayableAt",
              "type": "string"
            },
            {
              "internalType": "string",
              "name": "onCarriagePayableAt",
              "type": "string"
            },
            {
              "internalType": "uint256",
              "name": "numberOfBill",
              "type": "uint256"
            },
            {
              "internalType": "uint256",
              "name": "issuedAt",
              "type": "uint256"
            },
            {
              "internalType": "string",
              "name": "forCarrier",
              "type": "string"
            },
            {
              "internalType": "string",
              "name": "freightPayableAt",
              "type": "string"
            },
            {
              "internalType": "uint256",
              "name": "NumberOfOriginalBSL",
              "type": "uint256"
            },
            {
              "internalType": "bool",
              "name": "isSentToCarrier",
              "type": "bool"
            },
            {
              "internalType": "bool",
              "name": "isSentToBuyer",
              "type": "bool"
            },
            {
              "internalType": "string",
              "name": "freightAndCharges",
              "type": "string"
            }
          ],
          "internalType": "struct BillOfLading.ReceiptData",
          "name": "_orderData",
          "type": "tuple"
        },
        {
          "components": [
            {
              "internalType": "uint256",
              "name": "marksAndNos",
              "type": "uint256"
            },
            {
              "internalType": "string",
              "name": "contNumber",
              "type": "string"
            },
            {
              "internalType": "string",
              "name": "description",
              "type": "string"
            },
            {
              "internalType": "uint256",
              "name": "grossWeight",
              "type": "uint256"
            },
            {
              "internalType": "uint256",
              "name": "measurement",
              "type": "uint256"
            }
          ],
          "internalType": "struct BillOfLading.Package[]",
          "name": "_packages",
          "type": "tuple[]"
        }
      ],
      "name": "generateBillOfLading",
      "outputs": [],
      "stateMutability": "nonpayable",
      "type": "function"
    },
    {
      "inputs": [
        {
          "internalType": "address",
          "name": "_buyerAddress",
          "type": "address"
        }
      ],
      "name": "getBuyerOrder",
      "outputs": [
        {
          "internalType": "uint256[]",
          "name": "",
          "type": "uint256[]"
        }
      ],
      "stateMutability": "view",
      "type": "function"
    },
    {
      "inputs": [
        {
          "internalType": "address",
          "name": "_carreirAddress",
          "type": "address"
        }
      ],
      "name": "getCarreirOrder",
      "outputs": [
        {
          "internalType": "uint256[]",
          "name": "",
          "type": "uint256[]"
        }
      ],
      "stateMutability": "view",
      "type": "function"
    },
    {
      "inputs": [
        {
          "internalType": "uint256",
          "name": "_id",
          "type": "uint256"
        }
      ],
      "name": "getOrderById",
      "outputs": [
        {
          "components": [
            {
              "components": [
                {
                  "internalType": "string",
                  "name": "physicalAddress",
                  "type": "string"
                },
                {
                  "internalType": "address",
                  "name": "walletAddress",
                  "type": "address"
                }
              ],
              "internalType": "struct BillOfLading.Shipper",
              "name": "shipper",
              "type": "tuple"
            },
            {
              "components": [
                {
                  "internalType": "string",
                  "name": "physicalAddress",
                  "type": "string"
                },
                {
                  "internalType": "address",
                  "name": "walletAddress",
                  "type": "address"
                }
              ],
              "internalType": "struct BillOfLading.Consignee",
              "name": "consignee",
              "type": "tuple"
            },
            {
              "components": [
                {
                  "internalType": "string",
                  "name": "physicalAddress",
                  "type": "string"
                },
                {
                  "internalType": "address",
                  "name": "walletAddress",
                  "type": "address"
                }
              ],
              "internalType": "struct BillOfLading.Carreir",
              "name": "carreir",
              "type": "tuple"
            },
            {
              "internalType": "string",
              "name": "preCarriageBy",
              "type": "string"
            },
            {
              "internalType": "string",
              "name": "placeOfReceiptByPreCarrier",
              "type": "string"
            },
            {
              "internalType": "string",
              "name": "vessel",
              "type": "string"
            },
            {
              "internalType": "string",
              "name": "portOfLoading",
              "type": "string"
            },
            {
              "internalType": "string",
              "name": "portOfDischarge",
              "type": "string"
            },
            {
              "internalType": "string",
              "name": "placeOfDeliveryByOnCarrier",
              "type": "string"
            },
            {
              "internalType": "string",
              "name": "customReference",
              "type": "string"
            },
            {
              "internalType": "uint256",
              "name": "billNumber",
              "type": "uint256"
            },
            {
              "internalType": "string",
              "name": "shipperReference",
              "type": "string"
            },
            {
              "internalType": "string",
              "name": "fAgentsReference",
              "type": "string"
            },
            {
              "internalType": "string",
              "name": "referenceNumber",
              "type": "string"
            },
            {
              "internalType": "string",
              "name": "preCarriagePayableAt",
              "type": "string"
            },
            {
              "internalType": "string",
              "name": "onCarriagePayableAt",
              "type": "string"
            },
            {
              "internalType": "uint256",
              "name": "numberOfBill",
              "type": "uint256"
            },
            {
              "internalType": "uint256",
              "name": "issuedAt",
              "type": "uint256"
            },
            {
              "internalType": "string",
              "name": "forCarrier",
              "type": "string"
            },
            {
              "internalType": "string",
              "name": "freightPayableAt",
              "type": "string"
            },
            {
              "internalType": "uint256",
              "name": "NumberOfOriginalBSL",
              "type": "uint256"
            },
            {
              "internalType": "bool",
              "name": "isSentToCarrier",
              "type": "bool"
            },
            {
              "internalType": "bool",
              "name": "isSentToBuyer",
              "type": "bool"
            },
            {
              "internalType": "string",
              "name": "freightAndCharges",
              "type": "string"
            }
          ],
          "internalType": "struct BillOfLading.ReceiptData",
          "name": "",
          "type": "tuple"
        },
        {
          "components": [
            {
              "internalType": "uint256",
              "name": "marksAndNos",
              "type": "uint256"
            },
            {
              "internalType": "string",
              "name": "contNumber",
              "type": "string"
            },
            {
              "internalType": "string",
              "name": "description",
              "type": "string"
            },
            {
              "internalType": "uint256",
              "name": "grossWeight",
              "type": "uint256"
            },
            {
              "internalType": "uint256",
              "name": "measurement",
              "type": "uint256"
            }
          ],
          "internalType": "struct BillOfLading.Package[]",
          "name": "",
          "type": "tuple[]"
        }
      ],
      "stateMutability": "view",
      "type": "function"
    },
    {
      "inputs": [
        {
          "internalType": "address",
          "name": "_sellerAddress",
          "type": "address"
        }
      ],
      "name": "getSellerOrder",
      "outputs": [
        {
          "internalType": "uint256[]",
          "name": "",
          "type": "uint256[]"
        }
      ],
      "stateMutability": "view",
      "type": "function"
    },
    {
      "inputs": [
        {
          "internalType": "address",
          "name": "account",
          "type": "address"
        },
        {
          "internalType": "address",
          "name": "operator",
          "type": "address"
        }
      ],
      "name": "isApprovedForAll",
      "outputs": [
        {
          "internalType": "bool",
          "name": "",
          "type": "bool"
        }
      ],
      "stateMutability": "view",
      "type": "function"
    },
    {
      "inputs": [
        {
          "internalType": "address",
          "name": "from",
          "type": "address"
        },
        {
          "internalType": "address",
          "name": "to",
          "type": "address"
        },
        {
          "internalType": "uint256[]",
          "name": "ids",
          "type": "uint256[]"
        },
        {
          "internalType": "uint256[]",
          "name": "amounts",
          "type": "uint256[]"
        },
        {
          "internalType": "bytes",
          "name": "data",
          "type": "bytes"
        }
      ],
      "name": "safeBatchTransferFrom",
      "outputs": [],
      "stateMutability": "nonpayable",
      "type": "function"
    },
    {
      "inputs": [
        {
          "internalType": "address",
          "name": "from",
          "type": "address"
        },
        {
          "internalType": "address",
          "name": "to",
          "type": "address"
        },
        {
          "internalType": "uint256",
          "name": "id",
          "type": "uint256"
        },
        {
          "internalType": "uint256",
          "name": "amount",
          "type": "uint256"
        },
        {
          "internalType": "bytes",
          "name": "data",
          "type": "bytes"
        }
      ],
      "name": "safeTransferFrom",
      "outputs": [],
      "stateMutability": "nonpayable",
      "type": "function"
    },
    {
      "inputs": [
        {
          "internalType": "uint256",
          "name": "_id",
          "type": "uint256"
        }
      ],
      "name": "sendBillOfLadingToBuyer",
      "outputs": [],
      "stateMutability": "nonpayable",
      "type": "function"
    },
    {
      "inputs": [
        {
          "internalType": "uint256",
          "name": "_id",
          "type": "uint256"
        }
      ],
      "name": "sendBillOfLadingToCarreir",
      "outputs": [],
      "stateMutability": "nonpayable",
      "type": "function"
    },
    {
      "inputs": [
        {
          "internalType": "address",
          "name": "operator",
          "type": "address"
        },
        {
          "internalType": "bool",
          "name": "approved",
          "type": "bool"
        }
      ],
      "name": "setApprovalForAll",
      "outputs": [],
      "stateMutability": "nonpayable",
      "type": "function"
    },
    {
      "inputs": [
        {
          "internalType": "bytes4",
          "name": "interfaceId",
          "type": "bytes4"
        }
      ],
      "name": "supportsInterface",
      "outputs": [
        {
          "internalType": "bool",
          "name": "",
          "type": "bool"
        }
      ],
      "stateMutability": "view",
      "type": "function"
    },
    {
      "inputs": [
        {
          "internalType": "uint256",
          "name": "",
          "type": "uint256"
        }
      ],
      "name": "uri",
      "outputs": [
        {
          "internalType": "string",
          "name": "",
          "type": "string"
        }
      ],
      "stateMutability": "view",
      "type": "function"
    }
  ],
  "bytecode": {
    "object": "0x60806040523480156200001157600080fd5b5060408051808201909152601481527f7777772e62696c6c6f666c6164696e672e636f6d0000000000000000000000006020820152620000518162000058565b50620001db565b60026200006682826200010f565b5050565b634e487b7160e01b600052604160045260246000fd5b600181811c908216806200009557607f821691505b602082108103620000b657634e487b7160e01b600052602260045260246000fd5b50919050565b601f8211156200010a57600081815260208120601f850160051c81016020861015620000e55750805b601f850160051c820191505b818110156200010657828155600101620000f1565b5050505b505050565b81516001600160401b038111156200012b576200012b6200006a565b62000143816200013c845462000080565b84620000bc565b602080601f8311600181146200017b5760008415620001625750858301515b600019600386901b1c1916600185901b17855562000106565b600085815260208120601f198616915b82811015620001ac578886015182559484019460019091019084016200018b565b5085821015620001cb5787850151600019600388901b60f8161c191681555b5050505050600190811b01905550565b61347780620001eb6000396000f3fe608060405234801561001057600080fd5b50600436106100f45760003560e01c806342b50a7a11610097578063a22cb46511610066578063a22cb46514610217578063e985e9c51461022a578063f242432a14610266578063f94226541461027957600080fd5b806342b50a7a146101bd57806344006ffa146101de5780634e1273f4146101f157806382cc75d41461020457600080fd5b80631fec06e0116100d35780631fec06e014610162578063243579ed146101825780632eb2c2d6146101975780633afa4991146101aa57600080fd5b8062fdd58e146100f957806301ffc9a71461011f5780630e89341c14610142575b600080fd5b61010c6101073660046122b4565b61028c565b6040519081526020015b60405180910390f35b61013261012d3660046122f7565b610325565b6040519015158152602001610116565b61015561015036600461231b565b610375565b604051610116919061237a565b61017561017036600461238d565b610409565b60405161011691906123e3565b6101956101903660046126b8565b610474565b005b6101956101a5366004612a89565b610860565b6101756101b836600461238d565b6108ac565b6101d06101cb36600461231b565b610916565b604051610116929190612da4565b6101956101ec36600461231b565b6115fc565b6101756101ff366004612e59565b611728565b61017561021236600461238d565b611851565b610195610225366004612f19565b6118bb565b610132610238366004612f4c565b6001600160a01b03918216600090815260016020908152604080832093909416825291909152205460ff1690565b610195610274366004612f76565b6118ca565b61019561028736600461231b565b61190f565b60006001600160a01b0383166102fc5760405162461bcd60e51b815260206004820152602a60248201527f455243313135353a2061646472657373207a65726f206973206e6f742061207660448201526930b634b21037bbb732b960b11b60648201526084015b60405180910390fd5b506000818152602081815260408083206001600160a01b03861684529091529020545b92915050565b60006001600160e01b03198216636cdb3d1360e11b148061035657506001600160e01b031982166303a24d0760e21b145b8061031f57506301ffc9a760e01b6001600160e01b031983161461031f565b60606002805461038490612fda565b80601f01602080910402602001604051908101604052809291908181526020018280546103b090612fda565b80156103fd5780601f106103d2576101008083540402835291602001916103fd565b820191906000526020600020905b8154815290600101906020018083116103e057829003601f168201915b50505050509050919050565b6001600160a01b0381166000908152600560209081526040918290208054835181840281018401909452808452606093928301828280156103fd57602002820191906000526020600020905b8154815260200190600101908083116104555750505050509050919050565b6000826040516020016104879190613014565b60408051601f198184030181529190524261022085015260006102c085018190526102a0850181905260088054929350906104c18361303d565b909155505060085460009081526003602052604090208351805185929190829081906104ed90826130a1565b5060209182015160019190910180546001600160a01b0319166001600160a01b0390921691909117905582015180516002830190819061052d90826130a1565b5060209190910151600190910180546001600160a01b0319166001600160a01b03909216919091179055604082015180516004830190819061056f90826130a1565b5060209190910151600190910180546001600160a01b0319166001600160a01b03909216919091179055606082015160068201906105ad90826130a1565b50608082015160078201906105c290826130a1565b5060a082015160088201906105d790826130a1565b5060c082015160098201906105ec90826130a1565b5060e0820151600a82019061060190826130a1565b50610100820151600b82019061061790826130a1565b50610120820151600c82019061062d90826130a1565b50610140820151600d820155610160820151600e82019061064e90826130a1565b50610180820151600f82019061066490826130a1565b506101a0820151601082019061067a90826130a1565b506101c0820151601182019061069090826130a1565b506101e082015160128201906106a690826130a1565b506102008201516013820155610220820151601482015561024082015160158201906106d290826130a1565b5061026082015160168201906106e890826130a1565b5061028082015160178201556102a08201516018820180546102c085015115156101000261ff00199315159390931661ffff19909116179190911790556102e0820151601982019061073a90826130a1565b5090505060005b82518110156107e9576008546000908152600760205260409020835184908390811061076f5761076f613160565b60209081029190910181015182546001818101855560009485529383902082516005909202019081559181015190928201906107ab90826130a1565b50604082015160028201906107c090826130a1565b5060608201516003820155608090910151600490910155806107e18161303d565b915050610741565b506107f933600854600384611a29565b336000818152600460209081526040808320600880548254600181018455928652948490209091019390935591548251938452908301527f99e14b31bf01142c674a0f0c3d78bacdc79182eeba6f52296384f92ac90d88d5910160405180910390a1505050565b6001600160a01b03851633148061087c575061087c8533610238565b6108985760405162461bcd60e51b81526004016102f390613176565b6108a58585858585611b3d565b5050505050565b6001600160a01b0381166000908152600460209081526040918290208054835181840281018401909452808452606093928301828280156103fd57602002820191906000526020600020908154815260200190600101908083116104555750505050509050919050565b61091e612185565b6000828152600360209081526040808320600790925291829020825161034081019093528154606093908390829061030082019083908290829061096190612fda565b80601f016020809104026020016040519081016040528092919081815260200182805461098d90612fda565b80156109da5780601f106109af576101008083540402835291602001916109da565b820191906000526020600020905b8154815290600101906020018083116109bd57829003601f168201915b5050509183525050600191909101546001600160a01b031660209182015290825260408051808201909152600284018054939092019290919082908290610a2090612fda565b80601f0160208091040260200160405190810160405280929190818152602001828054610a4c90612fda565b8015610a995780601f10610a6e57610100808354040283529160200191610a99565b820191906000526020600020905b815481529060010190602001808311610a7c57829003601f168201915b5050509183525050600191909101546001600160a01b031660209182015290825260408051808201909152600484018054939092019290919082908290610adf90612fda565b80601f0160208091040260200160405190810160405280929190818152602001828054610b0b90612fda565b8015610b585780601f10610b2d57610100808354040283529160200191610b58565b820191906000526020600020905b815481529060010190602001808311610b3b57829003601f168201915b5050509183525050600191909101546001600160a01b03166020918201529082526006830180549290910191610b8d90612fda565b80601f0160208091040260200160405190810160405280929190818152602001828054610bb990612fda565b8015610c065780601f10610bdb57610100808354040283529160200191610c06565b820191906000526020600020905b815481529060010190602001808311610be957829003601f168201915b50505050508152602001600782018054610c1f90612fda565b80601f0160208091040260200160405190810160405280929190818152602001828054610c4b90612fda565b8015610c985780601f10610c6d57610100808354040283529160200191610c98565b820191906000526020600020905b815481529060010190602001808311610c7b57829003601f168201915b50505050508152602001600882018054610cb190612fda565b80601f0160208091040260200160405190810160405280929190818152602001828054610cdd90612fda565b8015610d2a5780601f10610cff57610100808354040283529160200191610d2a565b820191906000526020600020905b815481529060010190602001808311610d0d57829003601f168201915b50505050508152602001600982018054610d4390612fda565b80601f0160208091040260200160405190810160405280929190818152602001828054610d6f90612fda565b8015610dbc5780601f10610d9157610100808354040283529160200191610dbc565b820191906000526020600020905b815481529060010190602001808311610d9f57829003601f168201915b50505050508152602001600a82018054610dd590612fda565b80601f0160208091040260200160405190810160405280929190818152602001828054610e0190612fda565b8015610e4e5780601f10610e2357610100808354040283529160200191610e4e565b820191906000526020600020905b815481529060010190602001808311610e3157829003601f168201915b50505050508152602001600b82018054610e6790612fda565b80601f0160208091040260200160405190810160405280929190818152602001828054610e9390612fda565b8015610ee05780601f10610eb557610100808354040283529160200191610ee0565b820191906000526020600020905b815481529060010190602001808311610ec357829003601f168201915b50505050508152602001600c82018054610ef990612fda565b80601f0160208091040260200160405190810160405280929190818152602001828054610f2590612fda565b8015610f725780601f10610f4757610100808354040283529160200191610f72565b820191906000526020600020905b815481529060010190602001808311610f5557829003601f168201915b50505050508152602001600d8201548152602001600e82018054610f9590612fda565b80601f0160208091040260200160405190810160405280929190818152602001828054610fc190612fda565b801561100e5780601f10610fe35761010080835404028352916020019161100e565b820191906000526020600020905b815481529060010190602001808311610ff157829003601f168201915b50505050508152602001600f8201805461102790612fda565b80601f016020809104026020016040519081016040528092919081815260200182805461105390612fda565b80156110a05780601f10611075576101008083540402835291602001916110a0565b820191906000526020600020905b81548152906001019060200180831161108357829003601f168201915b505050505081526020016010820180546110b990612fda565b80601f01602080910402602001604051908101604052809291908181526020018280546110e590612fda565b80156111325780601f1061110757610100808354040283529160200191611132565b820191906000526020600020905b81548152906001019060200180831161111557829003601f168201915b5050505050815260200160118201805461114b90612fda565b80601f016020809104026020016040519081016040528092919081815260200182805461117790612fda565b80156111c45780601f10611199576101008083540402835291602001916111c4565b820191906000526020600020905b8154815290600101906020018083116111a757829003601f168201915b505050505081526020016012820180546111dd90612fda565b80601f016020809104026020016040519081016040528092919081815260200182805461120990612fda565b80156112565780601f1061122b57610100808354040283529160200191611256565b820191906000526020600020905b81548152906001019060200180831161123957829003601f168201915b50505050508152602001601382015481526020016014820154815260200160158201805461128390612fda565b80601f01602080910402602001604051908101604052809291908181526020018280546112af90612fda565b80156112fc5780601f106112d1576101008083540402835291602001916112fc565b820191906000526020600020905b8154815290600101906020018083116112df57829003601f168201915b5050505050815260200160168201805461131590612fda565b80601f016020809104026020016040519081016040528092919081815260200182805461134190612fda565b801561138e5780601f106113635761010080835404028352916020019161138e565b820191906000526020600020905b81548152906001019060200180831161137157829003601f168201915b505050918352505060178201546020820152601882015460ff8082161515604084015261010090910416151560608201526019820180546080909201916113d490612fda565b80601f016020809104026020016040519081016040528092919081815260200182805461140090612fda565b801561144d5780601f106114225761010080835404028352916020019161144d565b820191906000526020600020905b81548152906001019060200180831161143057829003601f168201915b505050505081525050915080805480602002602001604051908101604052809291908181526020016000905b828210156115ed57838290600052602060002090600502016040518060a0016040529081600082015481526020016001820180546114b690612fda565b80601f01602080910402602001604051908101604052809291908181526020018280546114e290612fda565b801561152f5780601f106115045761010080835404028352916020019161152f565b820191906000526020600020905b81548152906001019060200180831161151257829003601f168201915b5050505050815260200160028201805461154890612fda565b80601f016020809104026020016040519081016040528092919081815260200182805461157490612fda565b80156115c15780601f10611596576101008083540402835291602001916115c1565b820191906000526020600020905b8154815290600101906020018083116115a457829003601f168201915b505050505081526020016003820154815260200160048201548152505081526020019060010190611479565b50505050905091509150915091565b6000818152600360205260409020601881015460ff161561165f5760405162461bcd60e51b815260206004820152601760248201527f616c72656164792073656e7420746f206361727265697200000000000000000060448201526064016102f3565b60188101805460ff191660019081179091556005808301546001600160a01b03908116600090815260209283526040808220805480870182559083529184902090910186905584840154815180830190925260048252636461746160e01b938201939093526116d59333939092169186916118ca565b6001810154604080513381526001600160a01b03909216602083015281018390527fb4f1570db05cbe5bc48af2ae81e0a0a00c13006c977bfc087bcac204f0f8b111906060015b60405180910390a15050565b6060815183511461178d5760405162461bcd60e51b815260206004820152602960248201527f455243313135353a206163636f756e747320616e6420696473206c656e677468604482015268040dad2e6dac2e8c6d60bb1b60648201526084016102f3565b600083516001600160401b038111156117a8576117a86123f6565b6040519080825280602002602001820160405280156117d1578160200160208202803683370190505b50905060005b84518110156118495761181c8582815181106117f5576117f5613160565b602002602001015185838151811061180f5761180f613160565b602002602001015161028c565b82828151811061182e5761182e613160565b60209081029190910101526118428161303d565b90506117d7565b509392505050565b6001600160a01b0381166000908152600660209081526040918290208054835181840281018401909452808452606093928301828280156103fd57602002820191906000526020600020908154815260200190600101908083116104555750505050509050919050565b6118c6338383611d1a565b5050565b6001600160a01b0385163314806118e657506118e68533610238565b6119025760405162461bcd60e51b81526004016102f390613176565b6108a58585858585611dfa565b60008181526003602052604090206018810154610100900460ff16156119665760405162461bcd60e51b815260206004820152600c60248201526b185b1c9958591e481cd95b9d60a21b60448201526064016102f3565b60188101805461ff0019166101001790556003810180546001600160a01b039081166000908152600660209081526040808320805460018181018355918552938390209093018790559354845180860190955260048552636461746160e01b918501919091526119de933393919091169186916118ca565b6003810154604080513381526001600160a01b03909216602083015281018390527f3ab766c8ff8b0bfce4c882855a1080e51ca28c1ec67107d5eef6de1bc7d1730f9060600161171c565b6001600160a01b038416611a895760405162461bcd60e51b815260206004820152602160248201527f455243313135353a206d696e7420746f20746865207a65726f206164647265736044820152607360f81b60648201526084016102f3565b336000611a9585611f24565b90506000611aa285611f24565b90506000868152602081815260408083206001600160a01b038b16845290915281208054879290611ad49084906131c4565b909155505060408051878152602081018790526001600160a01b03808a1692600092918716917fc3d58168c5ae7397731d063d5bbf3d657854427343f4c083240f7aacaa2d0f62910160405180910390a4611b3483600089898989611f6f565b50505050505050565b8151835114611b9f5760405162461bcd60e51b815260206004820152602860248201527f455243313135353a2069647320616e6420616d6f756e7473206c656e677468206044820152670dad2e6dac2e8c6d60c31b60648201526084016102f3565b6001600160a01b038416611bc55760405162461bcd60e51b81526004016102f3906131d7565b3360005b8451811015611cac576000858281518110611be657611be6613160565b602002602001015190506000858381518110611c0457611c04613160565b602090810291909101810151600084815280835260408082206001600160a01b038e168352909352919091205490915081811015611c545760405162461bcd60e51b81526004016102f39061321c565b6000838152602081815260408083206001600160a01b038e8116855292528083208585039055908b16825281208054849290611c919084906131c4565b9250508190555050505080611ca59061303d565b9050611bc9565b50846001600160a01b0316866001600160a01b0316826001600160a01b03167f4a39dc06d4c0dbc64b70af90fd698a233a518aa5d07e595d983b8c0526c8f7fb8787604051611cfc929190613266565b60405180910390a4611d128187878787876120ca565b505050505050565b816001600160a01b0316836001600160a01b031603611d8d5760405162461bcd60e51b815260206004820152602960248201527f455243313135353a2073657474696e6720617070726f76616c20737461747573604482015268103337b91039b2b63360b91b60648201526084016102f3565b6001600160a01b03838116600081815260016020908152604080832094871680845294825291829020805460ff191686151590811790915591519182527f17307eab39ab6107e8899845ad3d59bd9653f200f220920489ca2b5937696c31910160405180910390a3505050565b6001600160a01b038416611e205760405162461bcd60e51b81526004016102f3906131d7565b336000611e2c85611f24565b90506000611e3985611f24565b90506000868152602081815260408083206001600160a01b038c16845290915290205485811015611e7c5760405162461bcd60e51b81526004016102f39061321c565b6000878152602081815260408083206001600160a01b038d8116855292528083208985039055908a16825281208054889290611eb99084906131c4565b909155505060408051888152602081018890526001600160a01b03808b16928c821692918816917fc3d58168c5ae7397731d063d5bbf3d657854427343f4c083240f7aacaa2d0f62910160405180910390a4611f19848a8a8a8a8a611f6f565b505050505050505050565b60408051600180825281830190925260609160009190602080830190803683370190505090508281600081518110611f5e57611f5e613160565b602090810291909101015292915050565b6001600160a01b0384163b15611d125760405163f23a6e6160e01b81526001600160a01b0385169063f23a6e6190611fb39089908990889088908890600401613294565b6020604051808303816000875af1925050508015611fee575060408051601f3d908101601f19168201909252611feb918101906132d9565b60015b61209a57611ffa6132f6565b806308c379a003612033575061200e613312565b806120195750612035565b8060405162461bcd60e51b81526004016102f3919061237a565b505b60405162461bcd60e51b815260206004820152603460248201527f455243313135353a207472616e7366657220746f206e6f6e2d455243313135356044820152732932b1b2b4bb32b91034b6b83632b6b2b73a32b960611b60648201526084016102f3565b6001600160e01b0319811663f23a6e6160e01b14611b345760405162461bcd60e51b81526004016102f39061339b565b6001600160a01b0384163b15611d125760405163bc197c8160e01b81526001600160a01b0385169063bc197c819061210e90899089908890889088906004016133e3565b6020604051808303816000875af1925050508015612149575060408051601f3d908101601f19168201909252612146918101906132d9565b60015b61215557611ffa6132f6565b6001600160e01b0319811663bc197c8160e01b14611b345760405162461bcd60e51b81526004016102f39061339b565b604080516103408101909152606061030082019081526000610320830152819081526020016121d060405180604001604052806060815260200160006001600160a01b031681525090565b81526020016121fb60405180604001604052806060815260200160006001600160a01b031681525090565b8152602001606081526020016060815260200160608152602001606081526020016060815260200160608152602001606081526020016000815260200160608152602001606081526020016060815260200160608152602001606081526020016000815260200160008152602001606081526020016060815260200160008152602001600015158152602001600015158152602001606081525090565b80356001600160a01b03811681146122af57600080fd5b919050565b600080604083850312156122c757600080fd5b6122d083612298565b946020939093013593505050565b6001600160e01b0319811681146122f457600080fd5b50565b60006020828403121561230957600080fd5b8135612314816122de565b9392505050565b60006020828403121561232d57600080fd5b5035919050565b6000815180845260005b8181101561235a5760208185018101518683018201520161233e565b506000602082860101526020601f19601f83011685010191505092915050565b6020815260006123146020830184612334565b60006020828403121561239f57600080fd5b61231482612298565b600081518084526020808501945080840160005b838110156123d8578151875295820195908201906001016123bc565b509495945050505050565b60208152600061231460208301846123a8565b634e487b7160e01b600052604160045260246000fd5b60a081018181106001600160401b038211171561242b5761242b6123f6565b60405250565b601f8201601f191681016001600160401b0381118282101715612456576124566123f6565b6040525050565b60405161030081016001600160401b0381118282101715612480576124806123f6565b60405290565b600082601f83011261249757600080fd5b81356001600160401b038111156124b0576124b06123f6565b6040516124c7601f8301601f191660200182612431565b8181528460208386010111156124dc57600080fd5b816020850160208301376000918101602001919091529392505050565b60006040828403121561250b57600080fd5b604051604081016001600160401b03828210818311171561252e5761252e6123f6565b81604052829350843591508082111561254657600080fd5b5061255385828601612486565b82525061256260208401612298565b60208201525092915050565b803580151581146122af57600080fd5b60006001600160401b03821115612597576125976123f6565b5060051b60200190565b600082601f8301126125b257600080fd5b813560206125bf8261257e565b604080516125cd8382612431565b84815260059490941b86018301938381019250878511156125ed57600080fd5b8387015b858110156126ac5780356001600160401b03808211156126115760008081fd5b9089019060a0828c03601f190181131561262b5760008081fd5b85516126368161240c565b888401358152868401358381111561264e5760008081fd5b61265c8e8b83880101612486565b8a83015250606080850135848111156126755760008081fd5b6126838f8c83890101612486565b838a015250608085810135918301919091529190930135908301525084529284019284016125f1565b50979650505050505050565b600080604083850312156126cb57600080fd5b82356001600160401b03808211156126e257600080fd5b9084019061030082870312156126f757600080fd5b6126ff61245d565b82358281111561270e57600080fd5b61271a888286016124f9565b82525060208301358281111561272f57600080fd5b61273b888286016124f9565b60208301525060408301358281111561275357600080fd5b61275f888286016124f9565b60408301525060608301358281111561277757600080fd5b61278388828601612486565b60608301525060808301358281111561279b57600080fd5b6127a788828601612486565b60808301525060a0830135828111156127bf57600080fd5b6127cb88828601612486565b60a08301525060c0830135828111156127e357600080fd5b6127ef88828601612486565b60c08301525060e08301358281111561280757600080fd5b61281388828601612486565b60e083015250610100808401358381111561282d57600080fd5b61283989828701612486565b828401525050610120808401358381111561285357600080fd5b61285f89828701612486565b828401525050610140808401358183015250610160808401358381111561288557600080fd5b61289189828701612486565b82840152505061018080840135838111156128ab57600080fd5b6128b789828701612486565b8284015250506101a080840135838111156128d157600080fd5b6128dd89828701612486565b8284015250506101c080840135838111156128f757600080fd5b61290389828701612486565b8284015250506101e0808401358381111561291d57600080fd5b61292989828701612486565b828401525050610200808401358183015250610220808401358183015250610240808401358381111561295b57600080fd5b61296789828701612486565b828401525050610260808401358381111561298157600080fd5b61298d89828701612486565b8284015250506102808084013581830152506102a06129ad81850161256e565b908201526102c06129bf84820161256e565b908201526102e083810135838111156129d757600080fd5b6129e389828701612486565b828401525050809450506020850135915080821115612a0157600080fd5b50612a0e858286016125a1565b9150509250929050565b600082601f830112612a2957600080fd5b81356020612a368261257e565b604051612a438282612431565b83815260059390931b8501820192828101915086841115612a6357600080fd5b8286015b84811015612a7e5780358352918301918301612a67565b509695505050505050565b600080600080600060a08688031215612aa157600080fd5b612aaa86612298565b9450612ab860208701612298565b935060408601356001600160401b0380821115612ad457600080fd5b612ae089838a01612a18565b94506060880135915080821115612af657600080fd5b612b0289838a01612a18565b93506080880135915080821115612b1857600080fd5b50612b2588828901612486565b9150509295509295909350565b6000815160408452612b476040850182612334565b6020938401516001600160a01b0316949093019390935250919050565b60006103008251818552612b7a82860182612b32565b91505060208301518482036020860152612b948282612b32565b91505060408301518482036040860152612bae8282612b32565b91505060608301518482036060860152612bc88282612334565b91505060808301518482036080860152612be28282612334565b91505060a083015184820360a0860152612bfc8282612334565b91505060c083015184820360c0860152612c168282612334565b91505060e083015184820360e0860152612c308282612334565b9150506101008084015185830382870152612c4b8382612334565b925050506101208084015185830382870152612c678382612334565b925050506101408084015181860152506101608084015185830382870152612c8f8382612334565b925050506101808084015185830382870152612cab8382612334565b925050506101a08084015185830382870152612cc78382612334565b925050506101c08084015185830382870152612ce38382612334565b925050506101e08084015185830382870152612cff8382612334565b925050506102008084015181860152506102208084015181860152506102408084015185830382870152612d338382612334565b925050506102608084015185830382870152612d4f8382612334565b925050506102808084015181860152506102a080840151612d738287018215159052565b50506102c0838101511515908501526102e08084015185830382870152612d9a8382612334565b9695505050505050565b60006040808352612db781840186612b64565b6020848203818601528186518084528284019150828160051b85010183890160005b83811015612e4957601f19878403018552815160a081518552878201518189870152612e0782870182612334565b915050898201518582038b870152612e1f8282612334565b60608481015190880152608093840151939096019290925250509385019390850190600101612dd9565b50909a9950505050505050505050565b60008060408385031215612e6c57600080fd5b82356001600160401b0380821115612e8357600080fd5b818501915085601f830112612e9757600080fd5b81356020612ea48261257e565b604051612eb18282612431565b83815260059390931b8501820192828101915089841115612ed157600080fd5b948201945b83861015612ef657612ee786612298565b82529482019490820190612ed6565b96505086013592505080821115612f0c57600080fd5b50612a0e85828601612a18565b60008060408385031215612f2c57600080fd5b612f3583612298565b9150612f436020840161256e565b90509250929050565b60008060408385031215612f5f57600080fd5b612f6883612298565b9150612f4360208401612298565b600080600080600060a08688031215612f8e57600080fd5b612f9786612298565b9450612fa560208701612298565b9350604086013592506060860135915060808601356001600160401b03811115612fce57600080fd5b612b2588828901612486565b600181811c90821680612fee57607f821691505b60208210810361300e57634e487b7160e01b600052602260045260246000fd5b50919050565b6020815260006123146020830184612b64565b634e487b7160e01b600052601160045260246000fd5b60006001820161304f5761304f613027565b5060010190565b601f82111561309c57600081815260208120601f850160051c8101602086101561307d5750805b601f850160051c820191505b81811015611d1257828155600101613089565b505050565b81516001600160401b038111156130ba576130ba6123f6565b6130ce816130c88454612fda565b84613056565b602080601f83116001811461310357600084156130eb5750858301515b600019600386901b1c1916600185901b178555611d12565b600085815260208120601f198616915b8281101561313257888601518255948401946001909101908401613113565b50858210156131505787850151600019600388901b60f8161c191681555b5050505050600190811b01905550565b634e487b7160e01b600052603260045260246000fd5b6020808252602e908201527f455243313135353a2063616c6c6572206973206e6f7420746f6b656e206f776e60408201526d195c881bdc88185c1c1c9bdd995960921b606082015260800190565b8082018082111561031f5761031f613027565b60208082526025908201527f455243313135353a207472616e7366657220746f20746865207a65726f206164604082015264647265737360d81b606082015260800190565b6020808252602a908201527f455243313135353a20696e73756666696369656e742062616c616e636520666f60408201526939103a3930b739b332b960b11b606082015260800190565b60408152600061327960408301856123a8565b828103602084015261328b81856123a8565b95945050505050565b6001600160a01b03868116825285166020820152604081018490526060810183905260a0608082018190526000906132ce90830184612334565b979650505050505050565b6000602082840312156132eb57600080fd5b8151612314816122de565b600060033d111561330f5760046000803e5060005160e01c5b90565b600060443d10156133205790565b6040516003193d81016004833e81513d6001600160401b03816024840111818411171561334f57505050505090565b82850191508151818111156133675750505050505090565b843d87010160208285010111156133815750505050505090565b61339060208286010187612431565b509095945050505050565b60208082526028908201527f455243313135353a204552433131353552656365697665722072656a656374656040820152676420746f6b656e7360c01b606082015260800190565b6001600160a01b0386811682528516602082015260a06040820181905260009061340f908301866123a8565b828103606084015261342181866123a8565b905082810360808401526134358185612334565b9897505050505050505056fea2646970667358221220d50f7c5686574e4d358a7d24ddfd5e680d59d2601883cf9fe18d18b656717a5764736f6c63430008110033",
    "linkReferences": {}
  },
  "methodIdentifiers": {
    "balanceOf(address,uint256)": "00fdd58e",
    "balanceOfBatch(address[],uint256[])": "4e1273f4",
    "generateBillOfLading(((string,address),(string,address),(string,address),string,string,string,string,string,string,string,uint256,string,string,string,string,string,uint256,uint256,string,string,uint256,bool,bool,string),(uint256,string,string,uint256,uint256)[])": "243579ed",
    "getBuyerOrder(address)": "82cc75d4",
    "getCarreirOrder(address)": "1fec06e0",
    "getOrderById(uint256)": "42b50a7a",
    "getSellerOrder(address)": "3afa4991",
    "isApprovedForAll(address,address)": "e985e9c5",
    "safeBatchTransferFrom(address,address,uint256[],uint256[],bytes)": "2eb2c2d6",
    "safeTransferFrom(address,address,uint256,uint256,bytes)": "f242432a",
    "sendBillOfLadingToBuyer(uint256)": "f9422654",
    "sendBillOfLadingToCarreir(uint256)": "44006ffa",
    "setApprovalForAll(address,bool)": "a22cb465",
    "supportsInterface(bytes4)": "01ffc9a7",
    "uri(uint256)": "0e89341c"
  },
  "id": 25
}