{
  "abi": [
    {
      "inputs": [],
      "stateMutability": "nonpayable",
      "type": "constructor"
    },
    {
      "anonymous": false,
      "inputs": [
        {
          "indexed": true,
          "internalType": "address",
          "name": "account",
          "type": "address"
        },
        {
          "indexed": true,
          "internalType": "address",
          "name": "operator",
          "type": "address"
        },
        {
          "indexed": false,
          "internalType": "bool",
          "name": "approved",
          "type": "bool"
        }
      ],
      "name": "ApprovalForAll",
      "type": "event"
    },
    {
      "anonymous": false,
      "inputs": [
        {
          "indexed": false,
          "internalType": "address",
          "name": "seller",
          "type": "address"
        },
        {
          "indexed": false,
          "internalType": "address",
          "name": "buyer",
          "type": "address"
        },
        {
          "indexed": false,
          "internalType": "uint256",
          "name": "id",
          "type": "uint256"
        }
      ],
      "name": "BillSentToBuyer",
      "type": "event"
    },
    {
      "anonymous": false,
      "inputs": [
        {
          "indexed": false,
          "internalType": "address",
          "name": "seller",
          "type": "address"
        },
        {
          "indexed": false,
          "internalType": "address",
          "name": "carrier",
          "type": "address"
        },
        {
          "indexed": false,
          "internalType": "uint256",
          "name": "id",
          "type": "uint256"
        }
      ],
      "name": "BillSentToCarreir",
      "type": "event"
    },
    {
      "anonymous": false,
      "inputs": [
        {
          "indexed": false,
          "internalType": "address",
          "name": "by",
          "type": "address"
        },
        {
          "indexed": false,
          "internalType": "uint256",
          "name": "id",
          "type": "uint256"
        }
      ],
      "name": "NewBillGenerated",
      "type": "event"
    },
    {
      "anonymous": false,
      "inputs": [
        {
          "indexed": true,
          "internalType": "address",
          "name": "operator",
          "type": "address"
        },
        {
          "indexed": true,
          "internalType": "address",
          "name": "from",
          "type": "address"
        },
        {
          "indexed": true,
          "internalType": "address",
          "name": "to",
          "type": "address"
        },
        {
          "indexed": false,
          "internalType": "uint256[]",
          "name": "ids",
          "type": "uint256[]"
        },
        {
          "indexed": false,
          "internalType": "uint256[]",
          "name": "values",
          "type": "uint256[]"
        }
      ],
      "name": "TransferBatch",
      "type": "event"
    },
    {
      "anonymous": false,
      "inputs": [
        {
          "indexed": true,
          "internalType": "address",
          "name": "operator",
          "type": "address"
        },
        {
          "indexed": true,
          "internalType": "address",
          "name": "from",
          "type": "address"
        },
        {
          "indexed": true,
          "internalType": "address",
          "name": "to",
          "type": "address"
        },
        {
          "indexed": false,
          "internalType": "uint256",
          "name": "id",
          "type": "uint256"
        },
        {
          "indexed": false,
          "internalType": "uint256",
          "name": "value",
          "type": "uint256"
        }
      ],
      "name": "TransferSingle",
      "type": "event"
    },
    {
      "anonymous": false,
      "inputs": [
        {
          "indexed": false,
          "internalType": "string",
          "name": "value",
          "type": "string"
        },
        {
          "indexed": true,
          "internalType": "uint256",
          "name": "id",
          "type": "uint256"
        }
      ],
      "name": "URI",
      "type": "event"
    },
    {
      "inputs": [
        {
          "internalType": "address",
          "name": "account",
          "type": "address"
        },
        {
          "internalType": "uint256",
          "name": "id",
          "type": "uint256"
        }
      ],
      "name": "balanceOf",
      "outputs": [
        {
          "internalType": "uint256",
          "name": "",
          "type": "uint256"
        }
      ],
      "stateMutability": "view",
      "type": "function"
    },
    {
      "inputs": [
        {
          "internalType": "address[]",
          "name": "accounts",
          "type": "address[]"
        },
        {
          "internalType": "uint256[]",
          "name": "ids",
          "type": "uint256[]"
        }
      ],
      "name": "balanceOfBatch",
      "outputs": [
        {
          "internalType": "uint256[]",
          "name": "",
          "type": "uint256[]"
        }
      ],
      "stateMutability": "view",
      "type": "function"
    },
    {
      "inputs": [
        {
          "components": [
            {
              "internalType": "address",
              "name": "buyer",
              "type": "address"
            },
            {
              "internalType": "address",
              "name": "seller",
              "type": "address"
            },
            {
              "internalType": "address",
              "name": "carrier",
              "type": "address"
            },
            {
              "internalType": "uint256",
              "name": "referenceNumber",
              "type": "uint256"
            },
            {
              "internalType": "string",
              "name": "goods",
              "type": "string"
            },
            {
              "internalType": "uint256",
              "name": "quantity",
              "type": "uint256"
            },
            {
              "internalType": "uint256",
              "name": "number",
              "type": "uint256"
            },
            {
              "internalType": "uint256",
              "name": "price",
              "type": "uint256"
            },
            {
              "internalType": "bool",
              "name": "isSentToCarrier",
              "type": "bool"
            },
            {
              "internalType": "bool",
              "name": "isSentToBuyer",
              "type": "bool"
            }
          ],
          "internalType": "struct BillOfLading.OrderData",
          "name": "_orderData",
          "type": "tuple"
        }
      ],
      "name": "generateBillOfLading",
      "outputs": [],
      "stateMutability": "nonpayable",
      "type": "function"
    },
    {
      "inputs": [
        {
          "internalType": "address",
          "name": "_buyerAddress",
          "type": "address"
        }
      ],
      "name": "getBuyerOrder",
      "outputs": [
        {
          "internalType": "uint256[]",
          "name": "",
          "type": "uint256[]"
        }
      ],
      "stateMutability": "view",
      "type": "function"
    },
    {
      "inputs": [
        {
          "internalType": "address",
          "name": "_carreirAddress",
          "type": "address"
        }
      ],
      "name": "getCarreirOrder",
      "outputs": [
        {
          "internalType": "uint256[]",
          "name": "",
          "type": "uint256[]"
        }
      ],
      "stateMutability": "view",
      "type": "function"
    },
    {
      "inputs": [
        {
          "internalType": "uint256",
          "name": "_id",
          "type": "uint256"
        }
      ],
      "name": "getOrderById",
      "outputs": [
        {
          "components": [
            {
              "internalType": "address",
              "name": "buyer",
              "type": "address"
            },
            {
              "internalType": "address",
              "name": "seller",
              "type": "address"
            },
            {
              "internalType": "address",
              "name": "carrier",
              "type": "address"
            },
            {
              "internalType": "uint256",
              "name": "referenceNumber",
              "type": "uint256"
            },
            {
              "internalType": "string",
              "name": "goods",
              "type": "string"
            },
            {
              "internalType": "uint256",
              "name": "quantity",
              "type": "uint256"
            },
            {
              "internalType": "uint256",
              "name": "number",
              "type": "uint256"
            },
            {
              "internalType": "uint256",
              "name": "price",
              "type": "uint256"
            },
            {
              "internalType": "bool",
              "name": "isSentToCarrier",
              "type": "bool"
            },
            {
              "internalType": "bool",
              "name": "isSentToBuyer",
              "type": "bool"
            }
          ],
          "internalType": "struct BillOfLading.OrderData",
          "name": "",
          "type": "tuple"
        }
      ],
      "stateMutability": "view",
      "type": "function"
    },
    {
      "inputs": [
        {
          "internalType": "address",
          "name": "_sellerAddress",
          "type": "address"
        }
      ],
      "name": "getSellerOrder",
      "outputs": [
        {
          "internalType": "uint256[]",
          "name": "",
          "type": "uint256[]"
        }
      ],
      "stateMutability": "view",
      "type": "function"
    },
    {
      "inputs": [
        {
          "internalType": "address",
          "name": "account",
          "type": "address"
        },
        {
          "internalType": "address",
          "name": "operator",
          "type": "address"
        }
      ],
      "name": "isApprovedForAll",
      "outputs": [
        {
          "internalType": "bool",
          "name": "",
          "type": "bool"
        }
      ],
      "stateMutability": "view",
      "type": "function"
    },
    {
      "inputs": [
        {
          "internalType": "address",
          "name": "from",
          "type": "address"
        },
        {
          "internalType": "address",
          "name": "to",
          "type": "address"
        },
        {
          "internalType": "uint256[]",
          "name": "ids",
          "type": "uint256[]"
        },
        {
          "internalType": "uint256[]",
          "name": "amounts",
          "type": "uint256[]"
        },
        {
          "internalType": "bytes",
          "name": "data",
          "type": "bytes"
        }
      ],
      "name": "safeBatchTransferFrom",
      "outputs": [],
      "stateMutability": "nonpayable",
      "type": "function"
    },
    {
      "inputs": [
        {
          "internalType": "address",
          "name": "from",
          "type": "address"
        },
        {
          "internalType": "address",
          "name": "to",
          "type": "address"
        },
        {
          "internalType": "uint256",
          "name": "id",
          "type": "uint256"
        },
        {
          "internalType": "uint256",
          "name": "amount",
          "type": "uint256"
        },
        {
          "internalType": "bytes",
          "name": "data",
          "type": "bytes"
        }
      ],
      "name": "safeTransferFrom",
      "outputs": [],
      "stateMutability": "nonpayable",
      "type": "function"
    },
    {
      "inputs": [
        {
          "internalType": "uint256",
          "name": "_id",
          "type": "uint256"
        }
      ],
      "name": "sendBillOfLadingToBuyer",
      "outputs": [],
      "stateMutability": "nonpayable",
      "type": "function"
    },
    {
      "inputs": [
        {
          "internalType": "uint256",
          "name": "_id",
          "type": "uint256"
        }
      ],
      "name": "sendBillOfLadingToCarreir",
      "outputs": [],
      "stateMutability": "nonpayable",
      "type": "function"
    },
    {
      "inputs": [
        {
          "internalType": "address",
          "name": "operator",
          "type": "address"
        },
        {
          "internalType": "bool",
          "name": "approved",
          "type": "bool"
        }
      ],
      "name": "setApprovalForAll",
      "outputs": [],
      "stateMutability": "nonpayable",
      "type": "function"
    },
    {
      "inputs": [
        {
          "internalType": "bytes4",
          "name": "interfaceId",
          "type": "bytes4"
        }
      ],
      "name": "supportsInterface",
      "outputs": [
        {
          "internalType": "bool",
          "name": "",
          "type": "bool"
        }
      ],
      "stateMutability": "view",
      "type": "function"
    },
    {
      "inputs": [
        {
          "internalType": "uint256",
          "name": "",
          "type": "uint256"
        }
      ],
      "name": "uri",
      "outputs": [
        {
          "internalType": "string",
          "name": "",
          "type": "string"
        }
      ],
      "stateMutability": "view",
      "type": "function"
    }
  ],
  "bytecode": {
    "object": "0x60806040523480156200001157600080fd5b5060408051808201909152601481527f7777772e62696c6c6f666c6164696e672e636f6d0000000000000000000000006020820152620000518162000058565b50620001db565b60026200006682826200010f565b5050565b634e487b7160e01b600052604160045260246000fd5b600181811c908216806200009557607f821691505b602082108103620000b657634e487b7160e01b600052602260045260246000fd5b50919050565b601f8211156200010a57600081815260208120601f850160051c81016020861015620000e55750805b601f850160051c820191505b818110156200010657828155600101620000f1565b5050505b505050565b81516001600160401b038111156200012b576200012b6200006a565b62000143816200013c845462000080565b84620000bc565b602080601f8311600181146200017b5760008415620001625750858301515b600019600386901b1c1916600185901b17855562000106565b600085815260208120601f198616915b82811015620001ac578886015182559484019460019091019084016200018b565b5085821015620001cb5787850151600019600388901b60f8161c191681555b5050505050600190811b01905550565b611ffe80620001eb6000396000f3fe608060405234801561001057600080fd5b50600436106100f45760003560e01c806344006ffa11610097578063cd7583af11610066578063cd7583af14610216578063e985e9c514610229578063f242432a14610265578063f94226541461027857600080fd5b806344006ffa146101ca5780634e1273f4146101dd57806382cc75d4146101f0578063a22cb4651461020357600080fd5b80631fec06e0116100d35780631fec06e0146101625780632eb2c2d6146101825780633afa49911461019757806342b50a7a146101aa57600080fd5b8062fdd58e146100f957806301ffc9a71461011f5780630e89341c14610142575b600080fd5b61010c6101073660046114c2565b61028b565b6040519081526020015b60405180910390f35b61013261012d366004611505565b610324565b6040519015158152602001610116565b610155610150366004611529565b610374565b6040516101169190611588565b61017561017036600461159b565b610408565b60405161011691906115f1565b61019561019036600461177a565b610473565b005b6101756101a536600461159b565b6104bf565b6101bd6101b8366004611529565b610529565b6040516101169190611824565b6101956101d8366004611529565b6106a7565b6101756101eb3660046118e2565b610827565b6101756101fe36600461159b565b610951565b6101956102113660046119bd565b6109bb565b6101956102243660046119f0565b6109ca565b610132610237366004611ae3565b6001600160a01b03918216600090815260016020908152604080832093909416825291909152205460ff1690565b610195610273366004611b0d565b610ba0565b610195610286366004611529565b610be5565b60006001600160a01b0383166102fb5760405162461bcd60e51b815260206004820152602a60248201527f455243313135353a2061646472657373207a65726f206973206e6f742061207660448201526930b634b21037bbb732b960b11b60648201526084015b60405180910390fd5b506000818152602081815260408083206001600160a01b03861684529091529020545b92915050565b60006001600160e01b03198216636cdb3d1360e11b148061035557506001600160e01b031982166303a24d0760e21b145b8061031e57506301ffc9a760e01b6001600160e01b031983161461031e565b60606002805461038390611b72565b80601f01602080910402602001604051908101604052809291908181526020018280546103af90611b72565b80156103fc5780601f106103d1576101008083540402835291602001916103fc565b820191906000526020600020905b8154815290600101906020018083116103df57829003601f168201915b50505050509050919050565b6001600160a01b0381166000908152600560209081526040918290208054835181840281018401909452808452606093928301828280156103fc57602002820191906000526020600020905b8154815260200190600101908083116104545750505050509050919050565b6001600160a01b03851633148061048f575061048f8533610237565b6104ab5760405162461bcd60e51b81526004016102f290611bac565b6104b88585858585610d4a565b5050505050565b6001600160a01b0381166000908152600460209081526040918290208054835181840281018401909452808452606093928301828280156103fc57602002820191906000526020600020908154815260200190600101908083116104545750505050509050919050565b60408051610140810182526000808252602082018190529181018290526060808201839052608082015260a0810182905260c0810182905260e08101829052610100810182905261012081019190915260008281526003602081815260409283902083516101408101855281546001600160a01b03908116825260018301548116938201939093526002820154909216938201939093529082015460608201526004820180549192916080840191906105e190611b72565b80601f016020809104026020016040519081016040528092919081815260200182805461060d90611b72565b801561065a5780601f1061062f5761010080835404028352916020019161065a565b820191906000526020600020905b81548152906001019060200180831161063d57829003601f168201915b505050918352505060058201546020820152600682015460408201526007820154606082015260089091015460ff8082161515608084015261010090910416151560a09091015292915050565b600081815260036020526040902060018101546001600160a01b031633146107095760405162461bcd60e51b815260206004820152601560248201527427b7363c9031b0b63632b210313c9039b2b63632b960591b60448201526064016102f2565b600881015460ff161561075e5760405162461bcd60e51b815260206004820152601760248201527f616c72656164792073656e7420746f206361727265697200000000000000000060448201526064016102f2565b60088101805460ff191660019081179091556002820180546001600160a01b03908116600090815260056020908152604080832080548088018255908452928290209092018790559254815180830190925260048252636461746160e01b938201939093526107d4933393909216918691610ba0565b6002810154604080513381526001600160a01b03909216602083015281018390527fb4f1570db05cbe5bc48af2ae81e0a0a00c13006c977bfc087bcac204f0f8b111906060015b60405180910390a15050565b6060815183511461088c5760405162461bcd60e51b815260206004820152602960248201527f455243313135353a206163636f756e747320616e6420696473206c656e677468604482015268040dad2e6dac2e8c6d60bb1b60648201526084016102f2565b6000835167ffffffffffffffff8111156108a8576108a8611604565b6040519080825280602002602001820160405280156108d1578160200160208202803683370190505b50905060005b84518110156109495761091c8582815181106108f5576108f5611bfa565b602002602001015185838151811061090f5761090f611bfa565b602002602001015161028b565b82828151811061092e5761092e611bfa565b602090810291909101015261094281611c26565b90506108d7565b509392505050565b6001600160a01b0381166000908152600660209081526040918290208054835181840281018401909452808452606093928301828280156103fc57602002820191906000526020600020908154815260200190600101908083116104545750505050509050919050565b6109c6338383610f27565b5050565b60208101516001600160a01b03163314610a265760405162461bcd60e51b815260206004820152601860248201527f4f6e6c792067656e6572617465642062792073656c6c6572000000000000000060448201526064016102f2565b600081604051602001610a399190611824565b60408051601f19818403018152919052600780549192506000610a5b83611c26565b9091555050600754600090815260036020818152604092839020855181546001600160a01b03199081166001600160a01b0392831617835592870151600183018054851691831691909117905593860151600282018054909316941693909317905560608401519082015560808301518391906004820190610add9082611c8a565b5060a0820151600582015560c0820151600682015560e082015160078083019190915561010080840151600890930180546101209095015161ffff1990951693151561ff001916939093179315150292909217905554610b41903390600384611007565b336000818152600460209081526040808320600780548254600181018455928652948490209091019390935591548251938452908301527f99e14b31bf01142c674a0f0c3d78bacdc79182eeba6f52296384f92ac90d88d5910161081b565b6001600160a01b038516331480610bbc5750610bbc8533610237565b610bd85760405162461bcd60e51b81526004016102f290611bac565b6104b8858585858561111b565b600081815260036020526040902060018101546001600160a01b03163314610c475760405162461bcd60e51b815260206004820152601560248201527427b7363c9031b0b63632b210313c9039b2b63632b960591b60448201526064016102f2565b6008810154610100900460ff1615610c905760405162461bcd60e51b815260206004820152600c60248201526b185b1c9958591e481cd95b9d60a21b60448201526064016102f2565b60088101805461ff00191661010017905580546001600160a01b039081166000908152600660209081526040808320805460018181018355918552938390209093018690558454815180830190925260048252636461746160e01b92820192909252610d029333939216918691610ba0565b8054604080513381526001600160a01b03909216602083015281018390527f3ab766c8ff8b0bfce4c882855a1080e51ca28c1ec67107d5eef6de1bc7d1730f9060600161081b565b8151835114610dac5760405162461bcd60e51b815260206004820152602860248201527f455243313135353a2069647320616e6420616d6f756e7473206c656e677468206044820152670dad2e6dac2e8c6d60c31b60648201526084016102f2565b6001600160a01b038416610dd25760405162461bcd60e51b81526004016102f290611d4a565b3360005b8451811015610eb9576000858281518110610df357610df3611bfa565b602002602001015190506000858381518110610e1157610e11611bfa565b602090810291909101810151600084815280835260408082206001600160a01b038e168352909352919091205490915081811015610e615760405162461bcd60e51b81526004016102f290611d8f565b6000838152602081815260408083206001600160a01b038e8116855292528083208585039055908b16825281208054849290610e9e908490611dd9565b9250508190555050505080610eb290611c26565b9050610dd6565b50846001600160a01b0316866001600160a01b0316826001600160a01b03167f4a39dc06d4c0dbc64b70af90fd698a233a518aa5d07e595d983b8c0526c8f7fb8787604051610f09929190611dec565b60405180910390a4610f1f818787878787611245565b505050505050565b816001600160a01b0316836001600160a01b031603610f9a5760405162461bcd60e51b815260206004820152602960248201527f455243313135353a2073657474696e6720617070726f76616c20737461747573604482015268103337b91039b2b63360b91b60648201526084016102f2565b6001600160a01b03838116600081815260016020908152604080832094871680845294825291829020805460ff191686151590811790915591519182527f17307eab39ab6107e8899845ad3d59bd9653f200f220920489ca2b5937696c31910160405180910390a3505050565b6001600160a01b0384166110675760405162461bcd60e51b815260206004820152602160248201527f455243313135353a206d696e7420746f20746865207a65726f206164647265736044820152607360f81b60648201526084016102f2565b336000611073856113a0565b90506000611080856113a0565b90506000868152602081815260408083206001600160a01b038b168452909152812080548792906110b2908490611dd9565b909155505060408051878152602081018790526001600160a01b03808a1692600092918716917fc3d58168c5ae7397731d063d5bbf3d657854427343f4c083240f7aacaa2d0f62910160405180910390a4611112836000898989896113eb565b50505050505050565b6001600160a01b0384166111415760405162461bcd60e51b81526004016102f290611d4a565b33600061114d856113a0565b9050600061115a856113a0565b90506000868152602081815260408083206001600160a01b038c1684529091529020548581101561119d5760405162461bcd60e51b81526004016102f290611d8f565b6000878152602081815260408083206001600160a01b038d8116855292528083208985039055908a168252812080548892906111da908490611dd9565b909155505060408051888152602081018890526001600160a01b03808b16928c821692918816917fc3d58168c5ae7397731d063d5bbf3d657854427343f4c083240f7aacaa2d0f62910160405180910390a461123a848a8a8a8a8a6113eb565b505050505050505050565b6001600160a01b0384163b15610f1f5760405163bc197c8160e01b81526001600160a01b0385169063bc197c81906112899089908990889088908890600401611e1a565b6020604051808303816000875af19250505080156112c4575060408051601f3d908101601f191682019092526112c191810190611e78565b60015b611370576112d0611e95565b806308c379a00361130957506112e4611eb1565b806112ef575061130b565b8060405162461bcd60e51b81526004016102f29190611588565b505b60405162461bcd60e51b815260206004820152603460248201527f455243313135353a207472616e7366657220746f206e6f6e2d455243313135356044820152732932b1b2b4bb32b91034b6b83632b6b2b73a32b960611b60648201526084016102f2565b6001600160e01b0319811663bc197c8160e01b146111125760405162461bcd60e51b81526004016102f290611f3b565b604080516001808252818301909252606091600091906020808301908036833701905050905082816000815181106113da576113da611bfa565b602090810291909101015292915050565b6001600160a01b0384163b15610f1f5760405163f23a6e6160e01b81526001600160a01b0385169063f23a6e619061142f9089908990889088908890600401611f83565b6020604051808303816000875af192505050801561146a575060408051601f3d908101601f1916820190925261146791810190611e78565b60015b611476576112d0611e95565b6001600160e01b0319811663f23a6e6160e01b146111125760405162461bcd60e51b81526004016102f290611f3b565b80356001600160a01b03811681146114bd57600080fd5b919050565b600080604083850312156114d557600080fd5b6114de836114a6565b946020939093013593505050565b6001600160e01b03198116811461150257600080fd5b50565b60006020828403121561151757600080fd5b8135611522816114ec565b9392505050565b60006020828403121561153b57600080fd5b5035919050565b6000815180845260005b818110156115685760208185018101518683018201520161154c565b506000602082860101526020601f19601f83011685010191505092915050565b6020815260006115226020830184611542565b6000602082840312156115ad57600080fd5b611522826114a6565b600081518084526020808501945080840160005b838110156115e6578151875295820195908201906001016115ca565b509495945050505050565b60208152600061152260208301846115b6565b634e487b7160e01b600052604160045260246000fd5b601f8201601f1916810167ffffffffffffffff8111828210171561164057611640611604565b6040525050565b604051610140810167ffffffffffffffff8111828210171561166b5761166b611604565b60405290565b600067ffffffffffffffff82111561168b5761168b611604565b5060051b60200190565b600082601f8301126116a657600080fd5b813560206116b382611671565b6040516116c0828261161a565b83815260059390931b85018201928281019150868411156116e057600080fd5b8286015b848110156116fb57803583529183019183016116e4565b509695505050505050565b600082601f83011261171757600080fd5b813567ffffffffffffffff81111561173157611731611604565b604051611748601f8301601f19166020018261161a565b81815284602083860101111561175d57600080fd5b816020850160208301376000918101602001919091529392505050565b600080600080600060a0868803121561179257600080fd5b61179b866114a6565b94506117a9602087016114a6565b9350604086013567ffffffffffffffff808211156117c657600080fd5b6117d289838a01611695565b945060608801359150808211156117e857600080fd5b6117f489838a01611695565b9350608088013591508082111561180a57600080fd5b5061181788828901611706565b9150509295509295909350565b6020815261183e6020820183516001600160a01b03169052565b6000602083015161185a60408401826001600160a01b03169052565b5060408301516001600160a01b0381166060840152506060830151608083015260808301516101408060a0850152611896610160850183611542565b915060a085015160c085015260c085015160e085015260e08501516101008181870152808701519150506101206118d08187018315159052565b90950151151593019290925250919050565b600080604083850312156118f557600080fd5b823567ffffffffffffffff8082111561190d57600080fd5b818501915085601f83011261192157600080fd5b8135602061192e82611671565b60405161193b828261161a565b83815260059390931b850182019282810191508984111561195b57600080fd5b948201945b8386101561198057611971866114a6565b82529482019490820190611960565b9650508601359250508082111561199657600080fd5b506119a385828601611695565b9150509250929050565b803580151581146114bd57600080fd5b600080604083850312156119d057600080fd5b6119d9836114a6565b91506119e7602084016119ad565b90509250929050565b600060208284031215611a0257600080fd5b813567ffffffffffffffff80821115611a1a57600080fd5b908301906101408286031215611a2f57600080fd5b611a37611647565b611a40836114a6565b8152611a4e602084016114a6565b6020820152611a5f604084016114a6565b604082015260608301356060820152608083013582811115611a8057600080fd5b611a8c87828601611706565b60808301525060a083013560a082015260c083013560c082015260e083013560e08201526101009150611ac08284016119ad565b828201526101209150611ad48284016119ad565b91810191909152949350505050565b60008060408385031215611af657600080fd5b611aff836114a6565b91506119e7602084016114a6565b600080600080600060a08688031215611b2557600080fd5b611b2e866114a6565b9450611b3c602087016114a6565b93506040860135925060608601359150608086013567ffffffffffffffff811115611b6657600080fd5b61181788828901611706565b600181811c90821680611b8657607f821691505b602082108103611ba657634e487b7160e01b600052602260045260246000fd5b50919050565b6020808252602e908201527f455243313135353a2063616c6c6572206973206e6f7420746f6b656e206f776e60408201526d195c881bdc88185c1c1c9bdd995960921b606082015260800190565b634e487b7160e01b600052603260045260246000fd5b634e487b7160e01b600052601160045260246000fd5b600060018201611c3857611c38611c10565b5060010190565b601f821115611c8557600081815260208120601f850160051c81016020861015611c665750805b601f850160051c820191505b81811015610f1f57828155600101611c72565b505050565b815167ffffffffffffffff811115611ca457611ca4611604565b611cb881611cb28454611b72565b84611c3f565b602080601f831160018114611ced5760008415611cd55750858301515b600019600386901b1c1916600185901b178555610f1f565b600085815260208120601f198616915b82811015611d1c57888601518255948401946001909101908401611cfd565b5085821015611d3a5787850151600019600388901b60f8161c191681555b5050505050600190811b01905550565b60208082526025908201527f455243313135353a207472616e7366657220746f20746865207a65726f206164604082015264647265737360d81b606082015260800190565b6020808252602a908201527f455243313135353a20696e73756666696369656e742062616c616e636520666f60408201526939103a3930b739b332b960b11b606082015260800190565b8082018082111561031e5761031e611c10565b604081526000611dff60408301856115b6565b8281036020840152611e1181856115b6565b95945050505050565b6001600160a01b0386811682528516602082015260a060408201819052600090611e46908301866115b6565b8281036060840152611e5881866115b6565b90508281036080840152611e6c8185611542565b98975050505050505050565b600060208284031215611e8a57600080fd5b8151611522816114ec565b600060033d1115611eae5760046000803e5060005160e01c5b90565b600060443d1015611ebf5790565b6040516003193d81016004833e81513d67ffffffffffffffff8160248401118184111715611eef57505050505090565b8285019150815181811115611f075750505050505090565b843d8701016020828501011115611f215750505050505090565b611f306020828601018761161a565b509095945050505050565b60208082526028908201527f455243313135353a204552433131353552656365697665722072656a656374656040820152676420746f6b656e7360c01b606082015260800190565b6001600160a01b03868116825285166020820152604081018490526060810183905260a060808201819052600090611fbd90830184611542565b97965050505050505056fea2646970667358221220c961d36671e11aff147cfa247ee9700842b42a723183e090bf0ae91fee302e6064736f6c63430008110033",
    "linkReferences": {}
  },
  "methodIdentifiers": {
    "balanceOf(address,uint256)": "00fdd58e",
    "balanceOfBatch(address[],uint256[])": "4e1273f4",
    "generateBillOfLading((address,address,address,uint256,string,uint256,uint256,uint256,bool,bool))": "cd7583af",
    "getBuyerOrder(address)": "82cc75d4",
    "getCarreirOrder(address)": "1fec06e0",
    "getOrderById(uint256)": "42b50a7a",
    "getSellerOrder(address)": "3afa4991",
    "isApprovedForAll(address,address)": "e985e9c5",
    "safeBatchTransferFrom(address,address,uint256[],uint256[],bytes)": "2eb2c2d6",
    "safeTransferFrom(address,address,uint256,uint256,bytes)": "f242432a",
    "sendBillOfLadingToBuyer(uint256)": "f9422654",
    "sendBillOfLadingToCarreir(uint256)": "44006ffa",
    "setApprovalForAll(address,bool)": "a22cb465",
    "supportsInterface(bytes4)": "01ffc9a7",
    "uri(uint256)": "0e89341c"
  },
  "id": 8
}