{
  "abi": [
    {
      "inputs": [],
      "stateMutability": "nonpayable",
      "type": "constructor"
    },
    {
      "anonymous": false,
      "inputs": [
        {
          "indexed": true,
          "internalType": "address",
          "name": "account",
          "type": "address"
        },
        {
          "indexed": true,
          "internalType": "address",
          "name": "operator",
          "type": "address"
        },
        {
          "indexed": false,
          "internalType": "bool",
          "name": "approved",
          "type": "bool"
        }
      ],
      "name": "ApprovalForAll",
      "type": "event"
    },
    {
      "anonymous": false,
      "inputs": [
        {
          "indexed": false,
          "internalType": "address",
          "name": "seller",
          "type": "address"
        },
        {
          "indexed": false,
          "internalType": "address",
          "name": "buyer",
          "type": "address"
        },
        {
          "indexed": false,
          "internalType": "uint256",
          "name": "id",
          "type": "uint256"
        }
      ],
      "name": "BillSentToBuyer",
      "type": "event"
    },
    {
      "anonymous": false,
      "inputs": [
        {
          "indexed": false,
          "internalType": "address",
          "name": "seller",
          "type": "address"
        },
        {
          "indexed": false,
          "internalType": "address",
          "name": "carrier",
          "type": "address"
        },
        {
          "indexed": false,
          "internalType": "uint256",
          "name": "id",
          "type": "uint256"
        }
      ],
      "name": "BillSentToCarreir",
      "type": "event"
    },
    {
      "anonymous": false,
      "inputs": [
        {
          "indexed": false,
          "internalType": "address",
          "name": "by",
          "type": "address"
        },
        {
          "indexed": false,
          "internalType": "uint256",
          "name": "id",
          "type": "uint256"
        }
      ],
      "name": "NewBillGenerated",
      "type": "event"
    },
    {
      "anonymous": false,
      "inputs": [
        {
          "indexed": true,
          "internalType": "address",
          "name": "operator",
          "type": "address"
        },
        {
          "indexed": true,
          "internalType": "address",
          "name": "from",
          "type": "address"
        },
        {
          "indexed": true,
          "internalType": "address",
          "name": "to",
          "type": "address"
        },
        {
          "indexed": false,
          "internalType": "uint256[]",
          "name": "ids",
          "type": "uint256[]"
        },
        {
          "indexed": false,
          "internalType": "uint256[]",
          "name": "values",
          "type": "uint256[]"
        }
      ],
      "name": "TransferBatch",
      "type": "event"
    },
    {
      "anonymous": false,
      "inputs": [
        {
          "indexed": true,
          "internalType": "address",
          "name": "operator",
          "type": "address"
        },
        {
          "indexed": true,
          "internalType": "address",
          "name": "from",
          "type": "address"
        },
        {
          "indexed": true,
          "internalType": "address",
          "name": "to",
          "type": "address"
        },
        {
          "indexed": false,
          "internalType": "uint256",
          "name": "id",
          "type": "uint256"
        },
        {
          "indexed": false,
          "internalType": "uint256",
          "name": "value",
          "type": "uint256"
        }
      ],
      "name": "TransferSingle",
      "type": "event"
    },
    {
      "anonymous": false,
      "inputs": [
        {
          "indexed": false,
          "internalType": "string",
          "name": "value",
          "type": "string"
        },
        {
          "indexed": true,
          "internalType": "uint256",
          "name": "id",
          "type": "uint256"
        }
      ],
      "name": "URI",
      "type": "event"
    },
    {
      "inputs": [
        {
          "internalType": "address",
          "name": "account",
          "type": "address"
        },
        {
          "internalType": "uint256",
          "name": "id",
          "type": "uint256"
        }
      ],
      "name": "balanceOf",
      "outputs": [
        {
          "internalType": "uint256",
          "name": "",
          "type": "uint256"
        }
      ],
      "stateMutability": "view",
      "type": "function"
    },
    {
      "inputs": [
        {
          "internalType": "address[]",
          "name": "accounts",
          "type": "address[]"
        },
        {
          "internalType": "uint256[]",
          "name": "ids",
          "type": "uint256[]"
        }
      ],
      "name": "balanceOfBatch",
      "outputs": [
        {
          "internalType": "uint256[]",
          "name": "",
          "type": "uint256[]"
        }
      ],
      "stateMutability": "view",
      "type": "function"
    },
    {
      "inputs": [
        {
          "components": [
            {
              "components": [
                {
                  "internalType": "string",
                  "name": "physicalShipperAddress",
                  "type": "string"
                },
                {
                  "internalType": "address",
                  "name": "shipperWalletAddress",
                  "type": "address"
                }
              ],
              "internalType": "struct BillOfLading.Shipper",
              "name": "shipper",
              "type": "tuple"
            },
            {
              "components": [
                {
                  "internalType": "string",
                  "name": "physicalConsigneeAddress",
                  "type": "string"
                },
                {
                  "internalType": "address",
                  "name": "consigneeWalletAddress",
                  "type": "address"
                }
              ],
              "internalType": "struct BillOfLading.Consignee",
              "name": "consignee",
              "type": "tuple"
            },
            {
              "components": [
                {
                  "internalType": "string",
                  "name": "carreirPhysicalAddress",
                  "type": "string"
                },
                {
                  "internalType": "address",
                  "name": "carreirWalletAddress",
                  "type": "address"
                }
              ],
              "internalType": "struct BillOfLading.Carreir",
              "name": "carreir",
              "type": "tuple"
            },
            {
              "internalType": "string",
              "name": "preCarriageBy",
              "type": "string"
            },
            {
              "internalType": "string",
              "name": "vessel",
              "type": "string"
            },
            {
              "internalType": "string",
              "name": "portOfDischarge",
              "type": "string"
            },
            {
              "internalType": "string",
              "name": "placeOfReceiptByPreCarrier",
              "type": "string"
            },
            {
              "internalType": "string",
              "name": "portOfLoading",
              "type": "string"
            },
            {
              "internalType": "string",
              "name": "placeOfDeliveryByOnCarrier",
              "type": "string"
            },
            {
              "internalType": "string",
              "name": "custeomReference",
              "type": "string"
            },
            {
              "internalType": "string",
              "name": "shipperReference",
              "type": "string"
            },
            {
              "internalType": "string",
              "name": "fAgentsReference",
              "type": "string"
            },
            {
              "internalType": "string",
              "name": "billNumber",
              "type": "string"
            },
            {
              "internalType": "string",
              "name": "referenceNumber",
              "type": "string"
            },
            {
              "internalType": "string",
              "name": "preCarraigePayableAt",
              "type": "string"
            },
            {
              "internalType": "string",
              "name": "onCarraigePayableAt",
              "type": "string"
            },
            {
              "internalType": "uint256",
              "name": "numberOfBill",
              "type": "uint256"
            },
            {
              "internalType": "uint256",
              "name": "issuedAt",
              "type": "uint256"
            },
            {
              "internalType": "string",
              "name": "freightPayableAt",
              "type": "string"
            },
            {
              "internalType": "uint256",
              "name": "NumberOfOrginalBSL",
              "type": "uint256"
            },
            {
              "internalType": "string",
              "name": "forCarrier",
              "type": "string"
            },
            {
              "internalType": "bool",
              "name": "isSentToCarrier",
              "type": "bool"
            },
            {
              "internalType": "bool",
              "name": "isSentToBuyer",
              "type": "bool"
            }
          ],
          "internalType": "struct BillOfLading.ReceiptData",
          "name": "_orderData",
          "type": "tuple"
        },
        {
          "components": [
            {
              "internalType": "string",
              "name": "description",
              "type": "string"
            },
            {
              "internalType": "uint256",
              "name": "grossWeight",
              "type": "uint256"
            },
            {
              "internalType": "uint256",
              "name": "measurments",
              "type": "uint256"
            }
          ],
          "internalType": "struct BillOfLading.Package[]",
          "name": "_packages",
          "type": "tuple[]"
        }
      ],
      "name": "generateBillOfLading",
      "outputs": [],
      "stateMutability": "nonpayable",
      "type": "function"
    },
    {
      "inputs": [
        {
          "internalType": "address",
          "name": "_buyerAddress",
          "type": "address"
        }
      ],
      "name": "getBuyerOrder",
      "outputs": [
        {
          "internalType": "uint256[]",
          "name": "",
          "type": "uint256[]"
        }
      ],
      "stateMutability": "view",
      "type": "function"
    },
    {
      "inputs": [
        {
          "internalType": "address",
          "name": "_carreirAddress",
          "type": "address"
        }
      ],
      "name": "getCarreirOrder",
      "outputs": [
        {
          "internalType": "uint256[]",
          "name": "",
          "type": "uint256[]"
        }
      ],
      "stateMutability": "view",
      "type": "function"
    },
    {
      "inputs": [
        {
          "internalType": "uint256",
          "name": "_id",
          "type": "uint256"
        }
      ],
      "name": "getOrderById",
      "outputs": [
        {
          "components": [
            {
              "components": [
                {
                  "internalType": "string",
                  "name": "physicalShipperAddress",
                  "type": "string"
                },
                {
                  "internalType": "address",
                  "name": "shipperWalletAddress",
                  "type": "address"
                }
              ],
              "internalType": "struct BillOfLading.Shipper",
              "name": "shipper",
              "type": "tuple"
            },
            {
              "components": [
                {
                  "internalType": "string",
                  "name": "physicalConsigneeAddress",
                  "type": "string"
                },
                {
                  "internalType": "address",
                  "name": "consigneeWalletAddress",
                  "type": "address"
                }
              ],
              "internalType": "struct BillOfLading.Consignee",
              "name": "consignee",
              "type": "tuple"
            },
            {
              "components": [
                {
                  "internalType": "string",
                  "name": "carreirPhysicalAddress",
                  "type": "string"
                },
                {
                  "internalType": "address",
                  "name": "carreirWalletAddress",
                  "type": "address"
                }
              ],
              "internalType": "struct BillOfLading.Carreir",
              "name": "carreir",
              "type": "tuple"
            },
            {
              "internalType": "string",
              "name": "preCarriageBy",
              "type": "string"
            },
            {
              "internalType": "string",
              "name": "vessel",
              "type": "string"
            },
            {
              "internalType": "string",
              "name": "portOfDischarge",
              "type": "string"
            },
            {
              "internalType": "string",
              "name": "placeOfReceiptByPreCarrier",
              "type": "string"
            },
            {
              "internalType": "string",
              "name": "portOfLoading",
              "type": "string"
            },
            {
              "internalType": "string",
              "name": "placeOfDeliveryByOnCarrier",
              "type": "string"
            },
            {
              "internalType": "string",
              "name": "custeomReference",
              "type": "string"
            },
            {
              "internalType": "string",
              "name": "shipperReference",
              "type": "string"
            },
            {
              "internalType": "string",
              "name": "fAgentsReference",
              "type": "string"
            },
            {
              "internalType": "string",
              "name": "billNumber",
              "type": "string"
            },
            {
              "internalType": "string",
              "name": "referenceNumber",
              "type": "string"
            },
            {
              "internalType": "string",
              "name": "preCarraigePayableAt",
              "type": "string"
            },
            {
              "internalType": "string",
              "name": "onCarraigePayableAt",
              "type": "string"
            },
            {
              "internalType": "uint256",
              "name": "numberOfBill",
              "type": "uint256"
            },
            {
              "internalType": "uint256",
              "name": "issuedAt",
              "type": "uint256"
            },
            {
              "internalType": "string",
              "name": "freightPayableAt",
              "type": "string"
            },
            {
              "internalType": "uint256",
              "name": "NumberOfOrginalBSL",
              "type": "uint256"
            },
            {
              "internalType": "string",
              "name": "forCarrier",
              "type": "string"
            },
            {
              "internalType": "bool",
              "name": "isSentToCarrier",
              "type": "bool"
            },
            {
              "internalType": "bool",
              "name": "isSentToBuyer",
              "type": "bool"
            }
          ],
          "internalType": "struct BillOfLading.ReceiptData",
          "name": "",
          "type": "tuple"
        },
        {
          "components": [
            {
              "internalType": "string",
              "name": "description",
              "type": "string"
            },
            {
              "internalType": "uint256",
              "name": "grossWeight",
              "type": "uint256"
            },
            {
              "internalType": "uint256",
              "name": "measurments",
              "type": "uint256"
            }
          ],
          "internalType": "struct BillOfLading.Package[]",
          "name": "",
          "type": "tuple[]"
        }
      ],
      "stateMutability": "view",
      "type": "function"
    },
    {
      "inputs": [
        {
          "internalType": "address",
          "name": "_sellerAddress",
          "type": "address"
        }
      ],
      "name": "getSellerOrder",
      "outputs": [
        {
          "internalType": "uint256[]",
          "name": "",
          "type": "uint256[]"
        }
      ],
      "stateMutability": "view",
      "type": "function"
    },
    {
      "inputs": [
        {
          "internalType": "address",
          "name": "account",
          "type": "address"
        },
        {
          "internalType": "address",
          "name": "operator",
          "type": "address"
        }
      ],
      "name": "isApprovedForAll",
      "outputs": [
        {
          "internalType": "bool",
          "name": "",
          "type": "bool"
        }
      ],
      "stateMutability": "view",
      "type": "function"
    },
    {
      "inputs": [
        {
          "internalType": "address",
          "name": "from",
          "type": "address"
        },
        {
          "internalType": "address",
          "name": "to",
          "type": "address"
        },
        {
          "internalType": "uint256[]",
          "name": "ids",
          "type": "uint256[]"
        },
        {
          "internalType": "uint256[]",
          "name": "amounts",
          "type": "uint256[]"
        },
        {
          "internalType": "bytes",
          "name": "data",
          "type": "bytes"
        }
      ],
      "name": "safeBatchTransferFrom",
      "outputs": [],
      "stateMutability": "nonpayable",
      "type": "function"
    },
    {
      "inputs": [
        {
          "internalType": "address",
          "name": "from",
          "type": "address"
        },
        {
          "internalType": "address",
          "name": "to",
          "type": "address"
        },
        {
          "internalType": "uint256",
          "name": "id",
          "type": "uint256"
        },
        {
          "internalType": "uint256",
          "name": "amount",
          "type": "uint256"
        },
        {
          "internalType": "bytes",
          "name": "data",
          "type": "bytes"
        }
      ],
      "name": "safeTransferFrom",
      "outputs": [],
      "stateMutability": "nonpayable",
      "type": "function"
    },
    {
      "inputs": [
        {
          "internalType": "uint256",
          "name": "_id",
          "type": "uint256"
        }
      ],
      "name": "sendBillOfLadingToBuyer",
      "outputs": [],
      "stateMutability": "nonpayable",
      "type": "function"
    },
    {
      "inputs": [
        {
          "internalType": "uint256",
          "name": "_id",
          "type": "uint256"
        }
      ],
      "name": "sendBillOfLadingToCarreir",
      "outputs": [],
      "stateMutability": "nonpayable",
      "type": "function"
    },
    {
      "inputs": [
        {
          "internalType": "address",
          "name": "operator",
          "type": "address"
        },
        {
          "internalType": "bool",
          "name": "approved",
          "type": "bool"
        }
      ],
      "name": "setApprovalForAll",
      "outputs": [],
      "stateMutability": "nonpayable",
      "type": "function"
    },
    {
      "inputs": [
        {
          "internalType": "bytes4",
          "name": "interfaceId",
          "type": "bytes4"
        }
      ],
      "name": "supportsInterface",
      "outputs": [
        {
          "internalType": "bool",
          "name": "",
          "type": "bool"
        }
      ],
      "stateMutability": "view",
      "type": "function"
    },
    {
      "inputs": [
        {
          "internalType": "uint256",
          "name": "",
          "type": "uint256"
        }
      ],
      "name": "uri",
      "outputs": [
        {
          "internalType": "string",
          "name": "",
          "type": "string"
        }
      ],
      "stateMutability": "view",
      "type": "function"
    }
  ],
  "bytecode": {
    "object": "0x60806040523480156200001157600080fd5b5060408051808201909152601481527f7777772e62696c6c6f666c6164696e672e636f6d0000000000000000000000006020820152620000518162000058565b50620001db565b60026200006682826200010f565b5050565b634e487b7160e01b600052604160045260246000fd5b600181811c908216806200009557607f821691505b602082108103620000b657634e487b7160e01b600052602260045260246000fd5b50919050565b601f8211156200010a57600081815260208120601f850160051c81016020861015620000e55750805b601f850160051c820191505b818110156200010657828155600101620000f1565b5050505b505050565b81516001600160401b038111156200012b576200012b6200006a565b62000143816200013c845462000080565b84620000bc565b602080601f8311600181146200017b5760008415620001625750858301515b600019600386901b1c1916600185901b17855562000106565b600085815260208120601f198616915b82811015620001ac578886015182559484019460019091019084016200018b565b5085821015620001cb5787850151600019600388901b60f8161c191681555b5050505050600190811b01905550565b61332e80620001eb6000396000f3fe608060405234801561001057600080fd5b50600436106100f45760003560e01c806342b50a7a11610097578063a22cb46511610066578063a22cb46514610217578063e985e9c51461022a578063f242432a14610266578063f94226541461027957600080fd5b806342b50a7a146101bd57806344006ffa146101de5780634e1273f4146101f157806382cc75d41461020457600080fd5b80631fec06e0116100d35780631fec06e014610162578063226bd511146101825780632eb2c2d6146101975780633afa4991146101aa57600080fd5b8062fdd58e146100f957806301ffc9a71461011f5780630e89341c14610142575b600080fd5b61010c6101073660046121dc565b61028c565b6040519081526020015b60405180910390f35b61013261012d36600461221f565b610325565b6040519015158152602001610116565b610155610150366004612243565b610375565b60405161011691906122a2565b6101756101703660046122b5565b610409565b604051610116919061230b565b6101956101903660046125aa565b610474565b005b6101956101a536600461296d565b610835565b6101756101b83660046122b5565b610881565b6101d06101cb366004612243565b6108eb565b604051610116929190612c7f565b6101956101ec366004612243565b611528565b6101756101ff366004612d10565b611657565b6101756102123660046122b5565b611780565b610195610225366004612dd0565b6117ea565b610132610238366004612e03565b6001600160a01b03918216600090815260016020908152604080832093909416825291909152205460ff1690565b610195610274366004612e2d565b6117f9565b610195610287366004612243565b61183e565b60006001600160a01b0383166102fc5760405162461bcd60e51b815260206004820152602a60248201527f455243313135353a2061646472657373207a65726f206973206e6f742061207660448201526930b634b21037bbb732b960b11b60648201526084015b60405180910390fd5b506000818152602081815260408083206001600160a01b03861684529091529020545b92915050565b60006001600160e01b03198216636cdb3d1360e11b148061035657506001600160e01b031982166303a24d0760e21b145b8061031f57506301ffc9a760e01b6001600160e01b031983161461031f565b60606002805461038490612e91565b80601f01602080910402602001604051908101604052809291908181526020018280546103b090612e91565b80156103fd5780601f106103d2576101008083540402835291602001916103fd565b820191906000526020600020905b8154815290600101906020018083116103e057829003601f168201915b50505050509050919050565b6001600160a01b0381166000908152600660209081526040918290208054835181840281018401909452808452606093928301828280156103fd57602002820191906000526020600020905b8154815260200190600101908083116104555750505050509050919050565b6000826040516020016104879190612ecb565b60408051601f198184030181529190524261022085015260006102c085018190526102a0850181905260098054929350906104c183612ef4565b909155505060095460009081526004602052604090208351805185929190829081906104ed9082612f58565b5060209182015160019190910180546001600160a01b0319166001600160a01b0390921691909117905582015180516002830190819061052d9082612f58565b5060209190910151600190910180546001600160a01b0319166001600160a01b03909216919091179055604082015180516004830190819061056f9082612f58565b5060209190910151600190910180546001600160a01b0319166001600160a01b03909216919091179055606082015160068201906105ad9082612f58565b50608082015160078201906105c29082612f58565b5060a082015160088201906105d79082612f58565b5060c082015160098201906105ec9082612f58565b5060e0820151600a8201906106019082612f58565b50610100820151600b8201906106179082612f58565b50610120820151600c82019061062d9082612f58565b50610140820151600d8201906106439082612f58565b50610160820151600e8201906106599082612f58565b50610180820151600f82019061066f9082612f58565b506101a082015160108201906106859082612f58565b506101c0820151601182019061069b9082612f58565b506101e082015160128201906106b19082612f58565b506102008201516013820155610220820151601482015561024082015160158201906106dd9082612f58565b50610260820151601682015561028082015160178201906106fe9082612f58565b506102a0820151601890910180546102c09093015115156101000261ff00199215159290921661ffff199093169290921717905560005b82518110156107be576009546000908152600860205260409020835184908390811061076357610763613017565b602090810291909101810151825460018101845560009384529190922082516003909202019081906107959082612f58565b5060208201516001820155604090910151600290910155806107b681612ef4565b915050610735565b506107ce33600954600384611958565b336000818152600560209081526040808320600980548254600181018455928652948490209091019390935591548251938452908301527f99e14b31bf01142c674a0f0c3d78bacdc79182eeba6f52296384f92ac90d88d5910160405180910390a1505050565b6001600160a01b03851633148061085157506108518533610238565b61086d5760405162461bcd60e51b81526004016102f39061302d565b61087a8585858585611a6c565b5050505050565b6001600160a01b0381166000908152600560209081526040918290208054835181840281018401909452808452606093928301828280156103fd57602002820191906000526020600020908154815260200190600101908083116104555750505050509050919050565b6108f36120b4565b600082815260046020908152604080832060089092529182902082516103208101909352815460609390839082906102e082019083908290829061093690612e91565b80601f016020809104026020016040519081016040528092919081815260200182805461096290612e91565b80156109af5780601f10610984576101008083540402835291602001916109af565b820191906000526020600020905b81548152906001019060200180831161099257829003601f168201915b5050509183525050600191909101546001600160a01b0316602091820152908252604080518082019091526002840180549390920192909190829082906109f590612e91565b80601f0160208091040260200160405190810160405280929190818152602001828054610a2190612e91565b8015610a6e5780601f10610a4357610100808354040283529160200191610a6e565b820191906000526020600020905b815481529060010190602001808311610a5157829003601f168201915b5050509183525050600191909101546001600160a01b031660209182015290825260408051808201909152600484018054939092019290919082908290610ab490612e91565b80601f0160208091040260200160405190810160405280929190818152602001828054610ae090612e91565b8015610b2d5780601f10610b0257610100808354040283529160200191610b2d565b820191906000526020600020905b815481529060010190602001808311610b1057829003601f168201915b5050509183525050600191909101546001600160a01b03166020918201529082526006830180549290910191610b6290612e91565b80601f0160208091040260200160405190810160405280929190818152602001828054610b8e90612e91565b8015610bdb5780601f10610bb057610100808354040283529160200191610bdb565b820191906000526020600020905b815481529060010190602001808311610bbe57829003601f168201915b50505050508152602001600782018054610bf490612e91565b80601f0160208091040260200160405190810160405280929190818152602001828054610c2090612e91565b8015610c6d5780601f10610c4257610100808354040283529160200191610c6d565b820191906000526020600020905b815481529060010190602001808311610c5057829003601f168201915b50505050508152602001600882018054610c8690612e91565b80601f0160208091040260200160405190810160405280929190818152602001828054610cb290612e91565b8015610cff5780601f10610cd457610100808354040283529160200191610cff565b820191906000526020600020905b815481529060010190602001808311610ce257829003601f168201915b50505050508152602001600982018054610d1890612e91565b80601f0160208091040260200160405190810160405280929190818152602001828054610d4490612e91565b8015610d915780601f10610d6657610100808354040283529160200191610d91565b820191906000526020600020905b815481529060010190602001808311610d7457829003601f168201915b50505050508152602001600a82018054610daa90612e91565b80601f0160208091040260200160405190810160405280929190818152602001828054610dd690612e91565b8015610e235780601f10610df857610100808354040283529160200191610e23565b820191906000526020600020905b815481529060010190602001808311610e0657829003601f168201915b50505050508152602001600b82018054610e3c90612e91565b80601f0160208091040260200160405190810160405280929190818152602001828054610e6890612e91565b8015610eb55780601f10610e8a57610100808354040283529160200191610eb5565b820191906000526020600020905b815481529060010190602001808311610e9857829003601f168201915b50505050508152602001600c82018054610ece90612e91565b80601f0160208091040260200160405190810160405280929190818152602001828054610efa90612e91565b8015610f475780601f10610f1c57610100808354040283529160200191610f47565b820191906000526020600020905b815481529060010190602001808311610f2a57829003601f168201915b50505050508152602001600d82018054610f6090612e91565b80601f0160208091040260200160405190810160405280929190818152602001828054610f8c90612e91565b8015610fd95780601f10610fae57610100808354040283529160200191610fd9565b820191906000526020600020905b815481529060010190602001808311610fbc57829003601f168201915b50505050508152602001600e82018054610ff290612e91565b80601f016020809104026020016040519081016040528092919081815260200182805461101e90612e91565b801561106b5780601f106110405761010080835404028352916020019161106b565b820191906000526020600020905b81548152906001019060200180831161104e57829003601f168201915b50505050508152602001600f8201805461108490612e91565b80601f01602080910402602001604051908101604052809291908181526020018280546110b090612e91565b80156110fd5780601f106110d2576101008083540402835291602001916110fd565b820191906000526020600020905b8154815290600101906020018083116110e057829003601f168201915b5050505050815260200160108201805461111690612e91565b80601f016020809104026020016040519081016040528092919081815260200182805461114290612e91565b801561118f5780601f106111645761010080835404028352916020019161118f565b820191906000526020600020905b81548152906001019060200180831161117257829003601f168201915b505050505081526020016011820180546111a890612e91565b80601f01602080910402602001604051908101604052809291908181526020018280546111d490612e91565b80156112215780601f106111f657610100808354040283529160200191611221565b820191906000526020600020905b81548152906001019060200180831161120457829003601f168201915b5050505050815260200160128201805461123a90612e91565b80601f016020809104026020016040519081016040528092919081815260200182805461126690612e91565b80156112b35780601f10611288576101008083540402835291602001916112b3565b820191906000526020600020905b81548152906001019060200180831161129657829003601f168201915b5050505050815260200160138201548152602001601482015481526020016015820180546112e090612e91565b80601f016020809104026020016040519081016040528092919081815260200182805461130c90612e91565b80156113595780601f1061132e57610100808354040283529160200191611359565b820191906000526020600020905b81548152906001019060200180831161133c57829003601f168201915b505050505081526020016016820154815260200160178201805461137c90612e91565b80601f01602080910402602001604051908101604052809291908181526020018280546113a890612e91565b80156113f55780601f106113ca576101008083540402835291602001916113f5565b820191906000526020600020905b8154815290600101906020018083116113d857829003601f168201915b50505091835250506018919091015460ff808216151560208085019190915261010090920416151560409283015283548251818302810183019093528083529294509091839160009084015b82821015611519578382906000526020600020906003020160405180606001604052908160008201805461147490612e91565b80601f01602080910402602001604051908101604052809291908181526020018280546114a090612e91565b80156114ed5780601f106114c2576101008083540402835291602001916114ed565b820191906000526020600020905b8154815290600101906020018083116114d057829003601f168201915b505050505081526020016001820154815260200160028201548152505081526020019060010190611441565b50505050905091509150915091565b6000818152600460205260409020601881015460ff161561158b5760405162461bcd60e51b815260206004820152601760248201527f616c72656164792073656e7420746f206361727265697200000000000000000060448201526064016102f3565b60188101805460ff1916600190811790915560058201546001600160a01b039081166000908152600660209081526040808320805480870182559084529282902090920186905584840154825180840190935260048352636461746160e01b9183019190915261160493339391909116918691906117f9565b6001810154604080513381526001600160a01b03909216602083015281018390527fb4f1570db05cbe5bc48af2ae81e0a0a00c13006c977bfc087bcac204f0f8b111906060015b60405180910390a15050565b606081518351146116bc5760405162461bcd60e51b815260206004820152602960248201527f455243313135353a206163636f756e747320616e6420696473206c656e677468604482015268040dad2e6dac2e8c6d60bb1b60648201526084016102f3565b600083516001600160401b038111156116d7576116d761231e565b604051908082528060200260200182016040528015611700578160200160208202803683370190505b50905060005b84518110156117785761174b85828151811061172457611724613017565b602002602001015185838151811061173e5761173e613017565b602002602001015161028c565b82828151811061175d5761175d613017565b602090810291909101015261177181612ef4565b9050611706565b509392505050565b6001600160a01b0381166000908152600760209081526040918290208054835181840281018401909452808452606093928301828280156103fd57602002820191906000526020600020908154815260200190600101908083116104555750505050509050919050565b6117f5338383611c49565b5050565b6001600160a01b03851633148061181557506118158533610238565b6118315760405162461bcd60e51b81526004016102f39061302d565b61087a8585858585611d29565b60008181526004602052604090206018810154610100900460ff16156118955760405162461bcd60e51b815260206004820152600c60248201526b185b1c9958591e481cd95b9d60a21b60448201526064016102f3565b60188101805461ff0019166101001790556003810180546001600160a01b039081166000908152600760209081526040808320805460018181018355918552938390209093018790559354845180860190955260048552636461746160e01b9185019190915261190d933393919091169186916117f9565b6003810154604080513381526001600160a01b03909216602083015281018390527f3ab766c8ff8b0bfce4c882855a1080e51ca28c1ec67107d5eef6de1bc7d1730f9060600161164b565b6001600160a01b0384166119b85760405162461bcd60e51b815260206004820152602160248201527f455243313135353a206d696e7420746f20746865207a65726f206164647265736044820152607360f81b60648201526084016102f3565b3360006119c485611e53565b905060006119d185611e53565b90506000868152602081815260408083206001600160a01b038b16845290915281208054879290611a0390849061307b565b909155505060408051878152602081018790526001600160a01b03808a1692600092918716917fc3d58168c5ae7397731d063d5bbf3d657854427343f4c083240f7aacaa2d0f62910160405180910390a4611a6383600089898989611e9e565b50505050505050565b8151835114611ace5760405162461bcd60e51b815260206004820152602860248201527f455243313135353a2069647320616e6420616d6f756e7473206c656e677468206044820152670dad2e6dac2e8c6d60c31b60648201526084016102f3565b6001600160a01b038416611af45760405162461bcd60e51b81526004016102f39061308e565b3360005b8451811015611bdb576000858281518110611b1557611b15613017565b602002602001015190506000858381518110611b3357611b33613017565b602090810291909101810151600084815280835260408082206001600160a01b038e168352909352919091205490915081811015611b835760405162461bcd60e51b81526004016102f3906130d3565b6000838152602081815260408083206001600160a01b038e8116855292528083208585039055908b16825281208054849290611bc090849061307b565b9250508190555050505080611bd490612ef4565b9050611af8565b50846001600160a01b0316866001600160a01b0316826001600160a01b03167f4a39dc06d4c0dbc64b70af90fd698a233a518aa5d07e595d983b8c0526c8f7fb8787604051611c2b92919061311d565b60405180910390a4611c41818787878787611ff9565b505050505050565b816001600160a01b0316836001600160a01b031603611cbc5760405162461bcd60e51b815260206004820152602960248201527f455243313135353a2073657474696e6720617070726f76616c20737461747573604482015268103337b91039b2b63360b91b60648201526084016102f3565b6001600160a01b03838116600081815260016020908152604080832094871680845294825291829020805460ff191686151590811790915591519182527f17307eab39ab6107e8899845ad3d59bd9653f200f220920489ca2b5937696c31910160405180910390a3505050565b6001600160a01b038416611d4f5760405162461bcd60e51b81526004016102f39061308e565b336000611d5b85611e53565b90506000611d6885611e53565b90506000868152602081815260408083206001600160a01b038c16845290915290205485811015611dab5760405162461bcd60e51b81526004016102f3906130d3565b6000878152602081815260408083206001600160a01b038d8116855292528083208985039055908a16825281208054889290611de890849061307b565b909155505060408051888152602081018890526001600160a01b03808b16928c821692918816917fc3d58168c5ae7397731d063d5bbf3d657854427343f4c083240f7aacaa2d0f62910160405180910390a4611e48848a8a8a8a8a611e9e565b505050505050505050565b60408051600180825281830190925260609160009190602080830190803683370190505090508281600081518110611e8d57611e8d613017565b602090810291909101015292915050565b6001600160a01b0384163b15611c415760405163f23a6e6160e01b81526001600160a01b0385169063f23a6e6190611ee2908990899088908890889060040161314b565b6020604051808303816000875af1925050508015611f1d575060408051601f3d908101601f19168201909252611f1a91810190613190565b60015b611fc957611f296131ad565b806308c379a003611f625750611f3d6131c9565b80611f485750611f64565b8060405162461bcd60e51b81526004016102f391906122a2565b505b60405162461bcd60e51b815260206004820152603460248201527f455243313135353a207472616e7366657220746f206e6f6e2d455243313135356044820152732932b1b2b4bb32b91034b6b83632b6b2b73a32b960611b60648201526084016102f3565b6001600160e01b0319811663f23a6e6160e01b14611a635760405162461bcd60e51b81526004016102f390613252565b6001600160a01b0384163b15611c415760405163bc197c8160e01b81526001600160a01b0385169063bc197c819061203d908990899088908890889060040161329a565b6020604051808303816000875af1925050508015612078575060408051601f3d908101601f1916820190925261207591810190613190565b60015b61208457611f296131ad565b6001600160e01b0319811663bc197c8160e01b14611a635760405162461bcd60e51b81526004016102f390613252565b60408051610320810190915260606102e082019081526000610300830152819081526020016120ff60405180604001604052806060815260200160006001600160a01b031681525090565b815260200161212a60405180604001604052806060815260200160006001600160a01b031681525090565b81526020016060815260200160608152602001606081526020016060815260200160608152602001606081526020016060815260200160608152602001606081526020016060815260200160608152602001606081526020016060815260200160008152602001600081526020016060815260200160008152602001606081526020016000151581526020016000151581525090565b80356001600160a01b03811681146121d757600080fd5b919050565b600080604083850312156121ef57600080fd5b6121f8836121c0565b946020939093013593505050565b6001600160e01b03198116811461221c57600080fd5b50565b60006020828403121561223157600080fd5b813561223c81612206565b9392505050565b60006020828403121561225557600080fd5b5035919050565b6000815180845260005b8181101561228257602081850181015186830182015201612266565b506000602082860101526020601f19601f83011685010191505092915050565b60208152600061223c602083018461225c565b6000602082840312156122c757600080fd5b61223c826121c0565b600081518084526020808501945080840160005b83811015612300578151875295820195908201906001016122e4565b509495945050505050565b60208152600061223c60208301846122d0565b634e487b7160e01b600052604160045260246000fd5b606081018181106001600160401b03821117156123535761235361231e565b60405250565b601f8201601f191681016001600160401b038111828210171561237e5761237e61231e565b6040525050565b6040516102e081016001600160401b03811182821017156123a8576123a861231e565b60405290565b600082601f8301126123bf57600080fd5b81356001600160401b038111156123d8576123d861231e565b6040516123ef601f8301601f191660200182612359565b81815284602083860101111561240457600080fd5b816020850160208301376000918101602001919091529392505050565b60006040828403121561243357600080fd5b604051604081016001600160401b0382821081831117156124565761245661231e565b81604052829350843591508082111561246e57600080fd5b5061247b858286016123ae565b82525061248a602084016121c0565b60208201525092915050565b803580151581146121d757600080fd5b60006001600160401b038211156124bf576124bf61231e565b5060051b60200190565b600082601f8301126124da57600080fd5b813560206124e7826124a6565b604080516124f58382612359565b84815260059490941b860183019383810192508785111561251557600080fd5b8387015b8581101561259e5780356001600160401b03808211156125395760008081fd5b908901906060828c03601f19018113156125535760008081fd5b855161255e81612334565b88840135838111156125705760008081fd5b61257e8e8b838801016123ae565b825250838701358982015292013585830152508452928401928401612519565b50979650505050505050565b600080604083850312156125bd57600080fd5b82356001600160401b03808211156125d457600080fd5b908401906102e082870312156125e957600080fd5b6125f1612385565b82358281111561260057600080fd5b61260c88828601612421565b82525060208301358281111561262157600080fd5b61262d88828601612421565b60208301525060408301358281111561264557600080fd5b61265188828601612421565b60408301525060608301358281111561266957600080fd5b612675888286016123ae565b60608301525060808301358281111561268d57600080fd5b612699888286016123ae565b60808301525060a0830135828111156126b157600080fd5b6126bd888286016123ae565b60a08301525060c0830135828111156126d557600080fd5b6126e1888286016123ae565b60c08301525060e0830135828111156126f957600080fd5b612705888286016123ae565b60e083015250610100808401358381111561271f57600080fd5b61272b898287016123ae565b828401525050610120808401358381111561274557600080fd5b612751898287016123ae565b828401525050610140808401358381111561276b57600080fd5b612777898287016123ae565b828401525050610160808401358381111561279157600080fd5b61279d898287016123ae565b82840152505061018080840135838111156127b757600080fd5b6127c3898287016123ae565b8284015250506101a080840135838111156127dd57600080fd5b6127e9898287016123ae565b8284015250506101c0808401358381111561280357600080fd5b61280f898287016123ae565b8284015250506101e0808401358381111561282957600080fd5b612835898287016123ae565b828401525050610200808401358183015250610220808401358183015250610240808401358381111561286757600080fd5b612873898287016123ae565b828401525050610260808401358183015250610280808401358381111561289957600080fd5b6128a5898287016123ae565b8284015250506102a06128b9818501612496565b908201526102c06128cb848201612496565b90820152935060208501359150808211156128e557600080fd5b506128f2858286016124c9565b9150509250929050565b600082601f83011261290d57600080fd5b8135602061291a826124a6565b6040516129278282612359565b83815260059390931b850182019282810191508684111561294757600080fd5b8286015b84811015612962578035835291830191830161294b565b509695505050505050565b600080600080600060a0868803121561298557600080fd5b61298e866121c0565b945061299c602087016121c0565b935060408601356001600160401b03808211156129b857600080fd5b6129c489838a016128fc565b945060608801359150808211156129da57600080fd5b6129e689838a016128fc565b935060808801359150808211156129fc57600080fd5b50612a09888289016123ae565b9150509295509295909350565b6000815160408452612a2b604085018261225c565b6020938401516001600160a01b0316949093019390935250919050565b60006102e08251818552612a5e82860182612a16565b91505060208301518482036020860152612a788282612a16565b91505060408301518482036040860152612a928282612a16565b91505060608301518482036060860152612aac828261225c565b91505060808301518482036080860152612ac6828261225c565b91505060a083015184820360a0860152612ae0828261225c565b91505060c083015184820360c0860152612afa828261225c565b91505060e083015184820360e0860152612b14828261225c565b9150506101008084015185830382870152612b2f838261225c565b925050506101208084015185830382870152612b4b838261225c565b925050506101408084015185830382870152612b67838261225c565b925050506101608084015185830382870152612b83838261225c565b925050506101808084015185830382870152612b9f838261225c565b925050506101a08084015185830382870152612bbb838261225c565b925050506101c08084015185830382870152612bd7838261225c565b925050506101e08084015185830382870152612bf3838261225c565b925050506102008084015181860152506102208084015181860152506102408084015185830382870152612c27838261225c565b925050506102608084015181860152506102808084015185830382870152612c4f838261225c565b925050506102a080840151612c678287018215159052565b50506102c09283015115159390920192909252919050565b60006040808352612c9281840186612a48565b6020848203818601528186518084528284019150828160051b85010183890160005b83811015612d0057601f19878403018552815160608151818652612cda8287018261225c565b838a0151878b0152928b0151958b01959095525094860194925090850190600101612cb4565b50909a9950505050505050505050565b60008060408385031215612d2357600080fd5b82356001600160401b0380821115612d3a57600080fd5b818501915085601f830112612d4e57600080fd5b81356020612d5b826124a6565b604051612d688282612359565b83815260059390931b8501820192828101915089841115612d8857600080fd5b948201945b83861015612dad57612d9e866121c0565b82529482019490820190612d8d565b96505086013592505080821115612dc357600080fd5b506128f2858286016128fc565b60008060408385031215612de357600080fd5b612dec836121c0565b9150612dfa60208401612496565b90509250929050565b60008060408385031215612e1657600080fd5b612e1f836121c0565b9150612dfa602084016121c0565b600080600080600060a08688031215612e4557600080fd5b612e4e866121c0565b9450612e5c602087016121c0565b9350604086013592506060860135915060808601356001600160401b03811115612e8557600080fd5b612a09888289016123ae565b600181811c90821680612ea557607f821691505b602082108103612ec557634e487b7160e01b600052602260045260246000fd5b50919050565b60208152600061223c6020830184612a48565b634e487b7160e01b600052601160045260246000fd5b600060018201612f0657612f06612ede565b5060010190565b601f821115612f5357600081815260208120601f850160051c81016020861015612f345750805b601f850160051c820191505b81811015611c4157828155600101612f40565b505050565b81516001600160401b03811115612f7157612f7161231e565b612f8581612f7f8454612e91565b84612f0d565b602080601f831160018114612fba5760008415612fa25750858301515b600019600386901b1c1916600185901b178555611c41565b600085815260208120601f198616915b82811015612fe957888601518255948401946001909101908401612fca565b50858210156130075787850151600019600388901b60f8161c191681555b5050505050600190811b01905550565b634e487b7160e01b600052603260045260246000fd5b6020808252602e908201527f455243313135353a2063616c6c6572206973206e6f7420746f6b656e206f776e60408201526d195c881bdc88185c1c1c9bdd995960921b606082015260800190565b8082018082111561031f5761031f612ede565b60208082526025908201527f455243313135353a207472616e7366657220746f20746865207a65726f206164604082015264647265737360d81b606082015260800190565b6020808252602a908201527f455243313135353a20696e73756666696369656e742062616c616e636520666f60408201526939103a3930b739b332b960b11b606082015260800190565b60408152600061313060408301856122d0565b828103602084015261314281856122d0565b95945050505050565b6001600160a01b03868116825285166020820152604081018490526060810183905260a0608082018190526000906131859083018461225c565b979650505050505050565b6000602082840312156131a257600080fd5b815161223c81612206565b600060033d11156131c65760046000803e5060005160e01c5b90565b600060443d10156131d75790565b6040516003193d81016004833e81513d6001600160401b03816024840111818411171561320657505050505090565b828501915081518181111561321e5750505050505090565b843d87010160208285010111156132385750505050505090565b61324760208286010187612359565b509095945050505050565b60208082526028908201527f455243313135353a204552433131353552656365697665722072656a656374656040820152676420746f6b656e7360c01b606082015260800190565b6001600160a01b0386811682528516602082015260a0604082018190526000906132c6908301866122d0565b82810360608401526132d881866122d0565b905082810360808401526132ec818561225c565b9897505050505050505056fea2646970667358221220eb058aec445c35212fb2b65ec9ad2edd5623fe87899d671a12380e2d03b0a04264736f6c63430008110033",
    "linkReferences": {}
  },
  "methodIdentifiers": {
    "balanceOf(address,uint256)": "00fdd58e",
    "balanceOfBatch(address[],uint256[])": "4e1273f4",
    "generateBillOfLading(((string,address),(string,address),(string,address),string,string,string,string,string,string,string,string,string,string,string,string,string,uint256,uint256,string,uint256,string,bool,bool),(string,uint256,uint256)[])": "226bd511",
    "getBuyerOrder(address)": "82cc75d4",
    "getCarreirOrder(address)": "1fec06e0",
    "getOrderById(uint256)": "42b50a7a",
    "getSellerOrder(address)": "3afa4991",
    "isApprovedForAll(address,address)": "e985e9c5",
    "safeBatchTransferFrom(address,address,uint256[],uint256[],bytes)": "2eb2c2d6",
    "safeTransferFrom(address,address,uint256,uint256,bytes)": "f242432a",
    "sendBillOfLadingToBuyer(uint256)": "f9422654",
    "sendBillOfLadingToCarreir(uint256)": "44006ffa",
    "setApprovalForAll(address,bool)": "a22cb465",
    "supportsInterface(bytes4)": "01ffc9a7",
    "uri(uint256)": "0e89341c"
  },
  "id": 25
}