{
  "abi": [
    {
      "inputs": [],
      "stateMutability": "nonpayable",
      "type": "constructor"
    },
    {
      "anonymous": false,
      "inputs": [
        {
          "indexed": true,
          "internalType": "address",
          "name": "account",
          "type": "address"
        },
        {
          "indexed": true,
          "internalType": "address",
          "name": "operator",
          "type": "address"
        },
        {
          "indexed": false,
          "internalType": "bool",
          "name": "approved",
          "type": "bool"
        }
      ],
      "name": "ApprovalForAll",
      "type": "event"
    },
    {
      "anonymous": false,
      "inputs": [
        {
          "indexed": false,
          "internalType": "address",
          "name": "seller",
          "type": "address"
        },
        {
          "indexed": false,
          "internalType": "address",
          "name": "buyer",
          "type": "address"
        },
        {
          "indexed": false,
          "internalType": "uint256",
          "name": "id",
          "type": "uint256"
        }
      ],
      "name": "BillSentToBuyer",
      "type": "event"
    },
    {
      "anonymous": false,
      "inputs": [
        {
          "indexed": false,
          "internalType": "address",
          "name": "seller",
          "type": "address"
        },
        {
          "indexed": false,
          "internalType": "address",
          "name": "carrier",
          "type": "address"
        },
        {
          "indexed": false,
          "internalType": "uint256",
          "name": "id",
          "type": "uint256"
        }
      ],
      "name": "BillSentToCarreir",
      "type": "event"
    },
    {
      "anonymous": false,
      "inputs": [
        {
          "indexed": false,
          "internalType": "address",
          "name": "by",
          "type": "address"
        },
        {
          "indexed": false,
          "internalType": "uint256",
          "name": "id",
          "type": "uint256"
        }
      ],
      "name": "NewBillGenerated",
      "type": "event"
    },
    {
      "anonymous": false,
      "inputs": [
        {
          "indexed": true,
          "internalType": "address",
          "name": "operator",
          "type": "address"
        },
        {
          "indexed": true,
          "internalType": "address",
          "name": "from",
          "type": "address"
        },
        {
          "indexed": true,
          "internalType": "address",
          "name": "to",
          "type": "address"
        },
        {
          "indexed": false,
          "internalType": "uint256[]",
          "name": "ids",
          "type": "uint256[]"
        },
        {
          "indexed": false,
          "internalType": "uint256[]",
          "name": "values",
          "type": "uint256[]"
        }
      ],
      "name": "TransferBatch",
      "type": "event"
    },
    {
      "anonymous": false,
      "inputs": [
        {
          "indexed": true,
          "internalType": "address",
          "name": "operator",
          "type": "address"
        },
        {
          "indexed": true,
          "internalType": "address",
          "name": "from",
          "type": "address"
        },
        {
          "indexed": true,
          "internalType": "address",
          "name": "to",
          "type": "address"
        },
        {
          "indexed": false,
          "internalType": "uint256",
          "name": "id",
          "type": "uint256"
        },
        {
          "indexed": false,
          "internalType": "uint256",
          "name": "value",
          "type": "uint256"
        }
      ],
      "name": "TransferSingle",
      "type": "event"
    },
    {
      "anonymous": false,
      "inputs": [
        {
          "indexed": false,
          "internalType": "string",
          "name": "value",
          "type": "string"
        },
        {
          "indexed": true,
          "internalType": "uint256",
          "name": "id",
          "type": "uint256"
        }
      ],
      "name": "URI",
      "type": "event"
    },
    {
      "inputs": [
        {
          "internalType": "address",
          "name": "account",
          "type": "address"
        },
        {
          "internalType": "uint256",
          "name": "id",
          "type": "uint256"
        }
      ],
      "name": "balanceOf",
      "outputs": [
        {
          "internalType": "uint256",
          "name": "",
          "type": "uint256"
        }
      ],
      "stateMutability": "view",
      "type": "function"
    },
    {
      "inputs": [
        {
          "internalType": "address[]",
          "name": "accounts",
          "type": "address[]"
        },
        {
          "internalType": "uint256[]",
          "name": "ids",
          "type": "uint256[]"
        }
      ],
      "name": "balanceOfBatch",
      "outputs": [
        {
          "internalType": "uint256[]",
          "name": "",
          "type": "uint256[]"
        }
      ],
      "stateMutability": "view",
      "type": "function"
    },
    {
      "inputs": [
        {
          "components": [
            {
              "components": [
                {
                  "internalType": "string",
                  "name": "physicalShipperAddress",
                  "type": "string"
                },
                {
                  "internalType": "address",
                  "name": "shipperWalletAddress",
                  "type": "address"
                }
              ],
              "internalType": "struct BillOfLading.Shipper",
              "name": "shipper",
              "type": "tuple"
            },
            {
              "components": [
                {
                  "internalType": "string",
                  "name": "physicalConsigneeAddress",
                  "type": "string"
                },
                {
                  "internalType": "address",
                  "name": "consigneeAddress",
                  "type": "address"
                }
              ],
              "internalType": "struct BillOfLading.Consignee",
              "name": "consignee",
              "type": "tuple"
            },
            {
              "internalType": "string",
              "name": "preCarriageBy",
              "type": "string"
            },
            {
              "internalType": "string",
              "name": "vessel",
              "type": "string"
            },
            {
              "internalType": "string",
              "name": "portOfDischarge",
              "type": "string"
            },
            {
              "internalType": "string",
              "name": "placeOfReceiptByPreCarrier",
              "type": "string"
            },
            {
              "internalType": "string",
              "name": "portOfLoading",
              "type": "string"
            },
            {
              "internalType": "string",
              "name": "placeOfDeliveryByOnCarrier",
              "type": "string"
            },
            {
              "internalType": "string",
              "name": "custeomReference",
              "type": "string"
            },
            {
              "internalType": "string",
              "name": "shipperReference",
              "type": "string"
            },
            {
              "internalType": "string",
              "name": "fAgentsReference",
              "type": "string"
            },
            {
              "internalType": "string",
              "name": "billNumber",
              "type": "string"
            },
            {
              "internalType": "string",
              "name": "referenceNumber",
              "type": "string"
            },
            {
              "internalType": "string",
              "name": "preCarraigePayableAt",
              "type": "string"
            },
            {
              "internalType": "string",
              "name": "onCarraigePayableAt",
              "type": "string"
            },
            {
              "internalType": "string[]",
              "name": "discreption",
              "type": "string[]"
            },
            {
              "internalType": "uint256[]",
              "name": "grossWeight",
              "type": "uint256[]"
            },
            {
              "internalType": "uint256[]",
              "name": "measurments",
              "type": "uint256[]"
            },
            {
              "internalType": "uint256",
              "name": "numberOfBill",
              "type": "uint256"
            },
            {
              "internalType": "uint256",
              "name": "issuedAt",
              "type": "uint256"
            },
            {
              "internalType": "string",
              "name": "freightPayableAt",
              "type": "string"
            },
            {
              "internalType": "uint256",
              "name": "NumberOfOrginalBSL",
              "type": "uint256"
            },
            {
              "internalType": "string",
              "name": "forCarrier",
              "type": "string"
            },
            {
              "internalType": "bool",
              "name": "isSentToCarrier",
              "type": "bool"
            },
            {
              "internalType": "bool",
              "name": "isSentToBuyer",
              "type": "bool"
            }
          ],
          "internalType": "struct BillOfLading.ReceiptData",
          "name": "_orderData",
          "type": "tuple"
        }
      ],
      "name": "generateBillOfLading",
      "outputs": [],
      "stateMutability": "nonpayable",
      "type": "function"
    },
    {
      "inputs": [
        {
          "internalType": "address",
          "name": "_buyerAddress",
          "type": "address"
        }
      ],
      "name": "getBuyerOrder",
      "outputs": [
        {
          "internalType": "uint256[]",
          "name": "",
          "type": "uint256[]"
        }
      ],
      "stateMutability": "view",
      "type": "function"
    },
    {
      "inputs": [
        {
          "internalType": "address",
          "name": "_carreirAddress",
          "type": "address"
        }
      ],
      "name": "getCarreirOrder",
      "outputs": [
        {
          "internalType": "uint256[]",
          "name": "",
          "type": "uint256[]"
        }
      ],
      "stateMutability": "view",
      "type": "function"
    },
    {
      "inputs": [
        {
          "internalType": "uint256",
          "name": "_id",
          "type": "uint256"
        }
      ],
      "name": "getOrderById",
      "outputs": [
        {
          "components": [
            {
              "components": [
                {
                  "internalType": "string",
                  "name": "physicalShipperAddress",
                  "type": "string"
                },
                {
                  "internalType": "address",
                  "name": "shipperWalletAddress",
                  "type": "address"
                }
              ],
              "internalType": "struct BillOfLading.Shipper",
              "name": "shipper",
              "type": "tuple"
            },
            {
              "components": [
                {
                  "internalType": "string",
                  "name": "physicalConsigneeAddress",
                  "type": "string"
                },
                {
                  "internalType": "address",
                  "name": "consigneeAddress",
                  "type": "address"
                }
              ],
              "internalType": "struct BillOfLading.Consignee",
              "name": "consignee",
              "type": "tuple"
            },
            {
              "internalType": "string",
              "name": "preCarriageBy",
              "type": "string"
            },
            {
              "internalType": "string",
              "name": "vessel",
              "type": "string"
            },
            {
              "internalType": "string",
              "name": "portOfDischarge",
              "type": "string"
            },
            {
              "internalType": "string",
              "name": "placeOfReceiptByPreCarrier",
              "type": "string"
            },
            {
              "internalType": "string",
              "name": "portOfLoading",
              "type": "string"
            },
            {
              "internalType": "string",
              "name": "placeOfDeliveryByOnCarrier",
              "type": "string"
            },
            {
              "internalType": "string",
              "name": "custeomReference",
              "type": "string"
            },
            {
              "internalType": "string",
              "name": "shipperReference",
              "type": "string"
            },
            {
              "internalType": "string",
              "name": "fAgentsReference",
              "type": "string"
            },
            {
              "internalType": "string",
              "name": "billNumber",
              "type": "string"
            },
            {
              "internalType": "string",
              "name": "referenceNumber",
              "type": "string"
            },
            {
              "internalType": "string",
              "name": "preCarraigePayableAt",
              "type": "string"
            },
            {
              "internalType": "string",
              "name": "onCarraigePayableAt",
              "type": "string"
            },
            {
              "internalType": "string[]",
              "name": "discreption",
              "type": "string[]"
            },
            {
              "internalType": "uint256[]",
              "name": "grossWeight",
              "type": "uint256[]"
            },
            {
              "internalType": "uint256[]",
              "name": "measurments",
              "type": "uint256[]"
            },
            {
              "internalType": "uint256",
              "name": "numberOfBill",
              "type": "uint256"
            },
            {
              "internalType": "uint256",
              "name": "issuedAt",
              "type": "uint256"
            },
            {
              "internalType": "string",
              "name": "freightPayableAt",
              "type": "string"
            },
            {
              "internalType": "uint256",
              "name": "NumberOfOrginalBSL",
              "type": "uint256"
            },
            {
              "internalType": "string",
              "name": "forCarrier",
              "type": "string"
            },
            {
              "internalType": "bool",
              "name": "isSentToCarrier",
              "type": "bool"
            },
            {
              "internalType": "bool",
              "name": "isSentToBuyer",
              "type": "bool"
            }
          ],
          "internalType": "struct BillOfLading.ReceiptData",
          "name": "",
          "type": "tuple"
        }
      ],
      "stateMutability": "view",
      "type": "function"
    },
    {
      "inputs": [
        {
          "internalType": "address",
          "name": "_sellerAddress",
          "type": "address"
        }
      ],
      "name": "getSellerOrder",
      "outputs": [
        {
          "internalType": "uint256[]",
          "name": "",
          "type": "uint256[]"
        }
      ],
      "stateMutability": "view",
      "type": "function"
    },
    {
      "inputs": [
        {
          "internalType": "address",
          "name": "account",
          "type": "address"
        },
        {
          "internalType": "address",
          "name": "operator",
          "type": "address"
        }
      ],
      "name": "isApprovedForAll",
      "outputs": [
        {
          "internalType": "bool",
          "name": "",
          "type": "bool"
        }
      ],
      "stateMutability": "view",
      "type": "function"
    },
    {
      "inputs": [
        {
          "internalType": "address",
          "name": "from",
          "type": "address"
        },
        {
          "internalType": "address",
          "name": "to",
          "type": "address"
        },
        {
          "internalType": "uint256[]",
          "name": "ids",
          "type": "uint256[]"
        },
        {
          "internalType": "uint256[]",
          "name": "amounts",
          "type": "uint256[]"
        },
        {
          "internalType": "bytes",
          "name": "data",
          "type": "bytes"
        }
      ],
      "name": "safeBatchTransferFrom",
      "outputs": [],
      "stateMutability": "nonpayable",
      "type": "function"
    },
    {
      "inputs": [
        {
          "internalType": "address",
          "name": "from",
          "type": "address"
        },
        {
          "internalType": "address",
          "name": "to",
          "type": "address"
        },
        {
          "internalType": "uint256",
          "name": "id",
          "type": "uint256"
        },
        {
          "internalType": "uint256",
          "name": "amount",
          "type": "uint256"
        },
        {
          "internalType": "bytes",
          "name": "data",
          "type": "bytes"
        }
      ],
      "name": "safeTransferFrom",
      "outputs": [],
      "stateMutability": "nonpayable",
      "type": "function"
    },
    {
      "inputs": [
        {
          "internalType": "uint256",
          "name": "_id",
          "type": "uint256"
        }
      ],
      "name": "sendBillOfLadingToBuyer",
      "outputs": [],
      "stateMutability": "nonpayable",
      "type": "function"
    },
    {
      "inputs": [
        {
          "internalType": "uint256",
          "name": "_id",
          "type": "uint256"
        }
      ],
      "name": "sendBillOfLadingToCarreir",
      "outputs": [],
      "stateMutability": "nonpayable",
      "type": "function"
    },
    {
      "inputs": [
        {
          "internalType": "address",
          "name": "operator",
          "type": "address"
        },
        {
          "internalType": "bool",
          "name": "approved",
          "type": "bool"
        }
      ],
      "name": "setApprovalForAll",
      "outputs": [],
      "stateMutability": "nonpayable",
      "type": "function"
    },
    {
      "inputs": [
        {
          "internalType": "bytes4",
          "name": "interfaceId",
          "type": "bytes4"
        }
      ],
      "name": "supportsInterface",
      "outputs": [
        {
          "internalType": "bool",
          "name": "",
          "type": "bool"
        }
      ],
      "stateMutability": "view",
      "type": "function"
    },
    {
      "inputs": [
        {
          "internalType": "uint256",
          "name": "",
          "type": "uint256"
        }
      ],
      "name": "uri",
      "outputs": [
        {
          "internalType": "string",
          "name": "",
          "type": "string"
        }
      ],
      "stateMutability": "view",
      "type": "function"
    }
  ],
  "bytecode": {
    "object": "0x60806040523480156200001157600080fd5b5060408051808201909152601481527f7777772e62696c6c6f666c6164696e672e636f6d0000000000000000000000006020820152620000518162000058565b50620001db565b60026200006682826200010f565b5050565b634e487b7160e01b600052604160045260246000fd5b600181811c908216806200009557607f821691505b602082108103620000b657634e487b7160e01b600052602260045260246000fd5b50919050565b601f8211156200010a57600081815260208120601f850160051c81016020861015620000e55750805b601f850160051c820191505b818110156200010657828155600101620000f1565b5050505b505050565b81516001600160401b038111156200012b576200012b6200006a565b62000143816200013c845462000080565b84620000bc565b602080601f8311600181146200017b5760008415620001625750858301515b600019600386901b1c1916600185901b17855562000106565b600085815260208120601f198616915b82811015620001ac578886015182559484019460019091019084016200018b565b5085821015620001cb5787850151600019600388901b60f8161c191681555b5050505050600190811b01905550565b61333180620001eb6000396000f3fe608060405234801561001057600080fd5b50600436106100f45760003560e01c806344006ffa11610097578063a22cb46511610066578063a22cb46514610216578063e985e9c514610229578063f242432a14610265578063f94226541461027857600080fd5b806344006ffa146101ca5780634e1273f4146101dd57806382cc75d4146101f057806396681d6e1461020357600080fd5b80631fec06e0116100d35780631fec06e0146101625780632eb2c2d6146101825780633afa49911461019757806342b50a7a146101aa57600080fd5b8062fdd58e146100f957806301ffc9a71461011f5780630e89341c14610142575b600080fd5b61010c6101073660046121f4565b61028b565b6040519081526020015b60405180910390f35b61013261012d366004612234565b610324565b6040519015158152602001610116565b610155610150366004612258565b610374565b60405161011691906122b7565b6101756101703660046122ca565b610408565b6040516101169190612320565b6101956101903660046124a5565b610473565b005b6101756101a53660046122ca565b6104bf565b6101bd6101b8366004612258565b610529565b60405161011691906125d5565b6101956101d8366004612258565b61111d565b6101756101eb36600461288e565b611248565b6101756101fe3660046122ca565b611371565b610195610211366004612a67565b6113db565b610195610224366004612de6565b61170c565b610132610237366004612e19565b6001600160a01b03918216600090815260016020908152604080832093909416825291909152205460ff1690565b610195610273366004612e43565b61171b565b610195610286366004612258565b611760565b60006001600160a01b0383166102fb5760405162461bcd60e51b815260206004820152602a60248201527f455243313135353a2061646472657373207a65726f206973206e6f742061207660448201526930b634b21037bbb732b960b11b60648201526084015b60405180910390fd5b506000818152602081815260408083206001600160a01b03861684529091529020545b92915050565b60006001600160e01b03198216636cdb3d1360e11b148061035557506001600160e01b031982166303a24d0760e21b145b8061031e57506301ffc9a760e01b6001600160e01b031983161461031e565b60606002805461038390612ea7565b80601f01602080910402602001604051908101604052809291908181526020018280546103af90612ea7565b80156103fc5780601f106103d1576101008083540402835291602001916103fc565b820191906000526020600020905b8154815290600101906020018083116103df57829003601f168201915b50505050509050919050565b6001600160a01b0381166000908152600660209081526040918290208054835181840281018401909452808452606093928301828280156103fc57602002820191906000526020600020905b8154815260200190600101908083116104545750505050509050919050565b6001600160a01b03851633148061048f575061048f8533610237565b6104ab5760405162461bcd60e51b81526004016102f290612ee1565b6104b8858585858561187a565b5050505050565b6001600160a01b0381166000908152600560209081526040918290208054835181840281018401909452808452606093928301828280156103fc57602002820191906000526020600020908154815260200190600101908083116104545750505050509050919050565b610531611fd6565b60008281526004602052604090819020815161036081019092528054829061032082019083908290829061056490612ea7565b80601f016020809104026020016040519081016040528092919081815260200182805461059090612ea7565b80156105dd5780601f106105b2576101008083540402835291602001916105dd565b820191906000526020600020905b8154815290600101906020018083116105c057829003601f168201915b5050509183525050600191909101546001600160a01b03166020918201529082526040805180820190915260028401805493909201929091908290829061062390612ea7565b80601f016020809104026020016040519081016040528092919081815260200182805461064f90612ea7565b801561069c5780601f106106715761010080835404028352916020019161069c565b820191906000526020600020905b81548152906001019060200180831161067f57829003601f168201915b5050509183525050600191909101546001600160a01b031660209182015290825260048301805492909101916106d190612ea7565b80601f01602080910402602001604051908101604052809291908181526020018280546106fd90612ea7565b801561074a5780601f1061071f5761010080835404028352916020019161074a565b820191906000526020600020905b81548152906001019060200180831161072d57829003601f168201915b5050505050815260200160058201805461076390612ea7565b80601f016020809104026020016040519081016040528092919081815260200182805461078f90612ea7565b80156107dc5780601f106107b1576101008083540402835291602001916107dc565b820191906000526020600020905b8154815290600101906020018083116107bf57829003601f168201915b505050505081526020016006820180546107f590612ea7565b80601f016020809104026020016040519081016040528092919081815260200182805461082190612ea7565b801561086e5780601f106108435761010080835404028352916020019161086e565b820191906000526020600020905b81548152906001019060200180831161085157829003601f168201915b5050505050815260200160078201805461088790612ea7565b80601f01602080910402602001604051908101604052809291908181526020018280546108b390612ea7565b80156109005780601f106108d557610100808354040283529160200191610900565b820191906000526020600020905b8154815290600101906020018083116108e357829003601f168201915b5050505050815260200160088201805461091990612ea7565b80601f016020809104026020016040519081016040528092919081815260200182805461094590612ea7565b80156109925780601f1061096757610100808354040283529160200191610992565b820191906000526020600020905b81548152906001019060200180831161097557829003601f168201915b505050505081526020016009820180546109ab90612ea7565b80601f01602080910402602001604051908101604052809291908181526020018280546109d790612ea7565b8015610a245780601f106109f957610100808354040283529160200191610a24565b820191906000526020600020905b815481529060010190602001808311610a0757829003601f168201915b50505050508152602001600a82018054610a3d90612ea7565b80601f0160208091040260200160405190810160405280929190818152602001828054610a6990612ea7565b8015610ab65780601f10610a8b57610100808354040283529160200191610ab6565b820191906000526020600020905b815481529060010190602001808311610a9957829003601f168201915b50505050508152602001600b82018054610acf90612ea7565b80601f0160208091040260200160405190810160405280929190818152602001828054610afb90612ea7565b8015610b485780601f10610b1d57610100808354040283529160200191610b48565b820191906000526020600020905b815481529060010190602001808311610b2b57829003601f168201915b50505050508152602001600c82018054610b6190612ea7565b80601f0160208091040260200160405190810160405280929190818152602001828054610b8d90612ea7565b8015610bda5780601f10610baf57610100808354040283529160200191610bda565b820191906000526020600020905b815481529060010190602001808311610bbd57829003601f168201915b50505050508152602001600d82018054610bf390612ea7565b80601f0160208091040260200160405190810160405280929190818152602001828054610c1f90612ea7565b8015610c6c5780601f10610c4157610100808354040283529160200191610c6c565b820191906000526020600020905b815481529060010190602001808311610c4f57829003601f168201915b50505050508152602001600e82018054610c8590612ea7565b80601f0160208091040260200160405190810160405280929190818152602001828054610cb190612ea7565b8015610cfe5780601f10610cd357610100808354040283529160200191610cfe565b820191906000526020600020905b815481529060010190602001808311610ce157829003601f168201915b50505050508152602001600f82018054610d1790612ea7565b80601f0160208091040260200160405190810160405280929190818152602001828054610d4390612ea7565b8015610d905780601f10610d6557610100808354040283529160200191610d90565b820191906000526020600020905b815481529060010190602001808311610d7357829003601f168201915b50505050508152602001601082018054610da990612ea7565b80601f0160208091040260200160405190810160405280929190818152602001828054610dd590612ea7565b8015610e225780601f10610df757610100808354040283529160200191610e22565b820191906000526020600020905b815481529060010190602001808311610e0557829003601f168201915b5050505050815260200160118201805480602002602001604051908101604052809291908181526020016000905b82821015610efc578382906000526020600020018054610e6f90612ea7565b80601f0160208091040260200160405190810160405280929190818152602001828054610e9b90612ea7565b8015610ee85780601f10610ebd57610100808354040283529160200191610ee8565b820191906000526020600020905b815481529060010190602001808311610ecb57829003601f168201915b505050505081526020019060010190610e50565b50505050815260200160128201805480602002602001604051908101604052809291908181526020018280548015610f5357602002820191906000526020600020905b815481526020019060010190808311610f3f575b5050505050815260200160138201805480602002602001604051908101604052809291908181526020018280548015610fab57602002820191906000526020600020905b815481526020019060010190808311610f97575b505050505081526020016014820154815260200160158201548152602001601682018054610fd890612ea7565b80601f016020809104026020016040519081016040528092919081815260200182805461100490612ea7565b80156110515780601f1061102657610100808354040283529160200191611051565b820191906000526020600020905b81548152906001019060200180831161103457829003601f168201915b505050505081526020016017820154815260200160188201805461107490612ea7565b80601f01602080910402602001604051908101604052809291908181526020018280546110a090612ea7565b80156110ed5780601f106110c2576101008083540402835291602001916110ed565b820191906000526020600020905b8154815290600101906020018083116110d057829003601f168201915b50505091835250506019919091015460ff8082161515602084015261010090910416151560409091015292915050565b6000818152600460205260409020601981015460ff16156111805760405162461bcd60e51b815260206004820152601760248201527f616c72656164792073656e7420746f206361727265697200000000000000000060448201526064016102f2565b60198101805460ff1916600190811790915581810180546001600160a01b03908116600090815260066020908152604080832080548088018255908452928290209092018790559254815180830190925260048252636461746160e01b938201939093526111f593339390921691869161171b565b6001810154604080513381526001600160a01b03909216602083015281018390527fb4f1570db05cbe5bc48af2ae81e0a0a00c13006c977bfc087bcac204f0f8b111906060015b60405180910390a15050565b606081518351146112ad5760405162461bcd60e51b815260206004820152602960248201527f455243313135353a206163636f756e747320616e6420696473206c656e677468604482015268040dad2e6dac2e8c6d60bb1b60648201526084016102f2565b600083516001600160401b038111156112c8576112c8612333565b6040519080825280602002602001820160405280156112f1578160200160208202803683370190505b50905060005b84518110156113695761133c85828151811061131557611315612f2f565b602002602001015185838151811061132f5761132f612f2f565b602002602001015161028b565b82828151811061134e5761134e612f2f565b602090810291909101015261136281612f5b565b90506112f7565b509392505050565b6001600160a01b0381166000908152600760209081526040918290208054835181840281018401909452808452606093928301828280156103fc57602002820191906000526020600020908154815260200190600101908083116104545750505050509050919050565b6000816040516020016113ee91906125d5565b60408051601f198184030181529190524261026084015260088054919250600061141783612f5b565b909155505060085460009081526004602052604090208251805184929190829081906114439082612fbf565b5060209182015160019190910180546001600160a01b0319166001600160a01b039092169190911790558201518051600283019081906114839082612fbf565b5060209190910151600190910180546001600160a01b0319166001600160a01b03909216919091179055604082015160048201906114c19082612fbf565b50606082015160058201906114d69082612fbf565b50608082015160068201906114eb9082612fbf565b5060a082015160078201906115009082612fbf565b5060c082015160088201906115159082612fbf565b5060e0820151600982019061152a9082612fbf565b50610100820151600a8201906115409082612fbf565b50610120820151600b8201906115569082612fbf565b50610140820151600c82019061156c9082612fbf565b50610160820151600d8201906115829082612fbf565b50610180820151600e8201906115989082612fbf565b506101a0820151600f8201906115ae9082612fbf565b506101c082015160108201906115c49082612fbf565b506101e082015180516115e19160118401916020909101906120cc565b5061020082015180516115fe916012840191602090910190612122565b50610220820151805161161b916013840191602090910190612122565b506102408201516014820155610260820151601582015561028082015160168201906116479082612fbf565b506102a082015160178201556102c082015160188201906116689082612fbf565b506102e0820151601990910180546103009093015115156101000261ff00199215159290921661ffff19909316929092171790556008546116ad903390600384611a57565b336000818152600560209081526040808320600880548254600181018455928652948490209091019390935591548251938452908301527f99e14b31bf01142c674a0f0c3d78bacdc79182eeba6f52296384f92ac90d88d5910161123c565b611717338383611b6b565b5050565b6001600160a01b03851633148061173757506117378533610237565b6117535760405162461bcd60e51b81526004016102f290612ee1565b6104b88585858585611c4b565b60008181526004602052604090206019810154610100900460ff16156117b75760405162461bcd60e51b815260206004820152600c60248201526b185b1c9958591e481cd95b9d60a21b60448201526064016102f2565b60198101805461ff0019166101001790556003810180546001600160a01b039081166000908152600760209081526040808320805460018181018355918552938390209093018790559354845180860190955260048552636461746160e01b9185019190915261182f9333939190911691869161171b565b6003810154604080513381526001600160a01b03909216602083015281018390527f3ab766c8ff8b0bfce4c882855a1080e51ca28c1ec67107d5eef6de1bc7d1730f9060600161123c565b81518351146118dc5760405162461bcd60e51b815260206004820152602860248201527f455243313135353a2069647320616e6420616d6f756e7473206c656e677468206044820152670dad2e6dac2e8c6d60c31b60648201526084016102f2565b6001600160a01b0384166119025760405162461bcd60e51b81526004016102f29061307e565b3360005b84518110156119e957600085828151811061192357611923612f2f565b60200260200101519050600085838151811061194157611941612f2f565b602090810291909101810151600084815280835260408082206001600160a01b038e1683529093529190912054909150818110156119915760405162461bcd60e51b81526004016102f2906130c3565b6000838152602081815260408083206001600160a01b038e8116855292528083208585039055908b168252812080548492906119ce90849061310d565b92505081905550505050806119e290612f5b565b9050611906565b50846001600160a01b0316866001600160a01b0316826001600160a01b03167f4a39dc06d4c0dbc64b70af90fd698a233a518aa5d07e595d983b8c0526c8f7fb8787604051611a39929190613120565b60405180910390a4611a4f818787878787611d75565b505050505050565b6001600160a01b038416611ab75760405162461bcd60e51b815260206004820152602160248201527f455243313135353a206d696e7420746f20746865207a65726f206164647265736044820152607360f81b60648201526084016102f2565b336000611ac385611ed0565b90506000611ad085611ed0565b90506000868152602081815260408083206001600160a01b038b16845290915281208054879290611b0290849061310d565b909155505060408051878152602081018790526001600160a01b03808a1692600092918716917fc3d58168c5ae7397731d063d5bbf3d657854427343f4c083240f7aacaa2d0f62910160405180910390a4611b6283600089898989611f1b565b50505050505050565b816001600160a01b0316836001600160a01b031603611bde5760405162461bcd60e51b815260206004820152602960248201527f455243313135353a2073657474696e6720617070726f76616c20737461747573604482015268103337b91039b2b63360b91b60648201526084016102f2565b6001600160a01b03838116600081815260016020908152604080832094871680845294825291829020805460ff191686151590811790915591519182527f17307eab39ab6107e8899845ad3d59bd9653f200f220920489ca2b5937696c31910160405180910390a3505050565b6001600160a01b038416611c715760405162461bcd60e51b81526004016102f29061307e565b336000611c7d85611ed0565b90506000611c8a85611ed0565b90506000868152602081815260408083206001600160a01b038c16845290915290205485811015611ccd5760405162461bcd60e51b81526004016102f2906130c3565b6000878152602081815260408083206001600160a01b038d8116855292528083208985039055908a16825281208054889290611d0a90849061310d565b909155505060408051888152602081018890526001600160a01b03808b16928c821692918816917fc3d58168c5ae7397731d063d5bbf3d657854427343f4c083240f7aacaa2d0f62910160405180910390a4611d6a848a8a8a8a8a611f1b565b505050505050505050565b6001600160a01b0384163b15611a4f5760405163bc197c8160e01b81526001600160a01b0385169063bc197c8190611db9908990899088908890889060040161314e565b6020604051808303816000875af1925050508015611df4575060408051601f3d908101601f19168201909252611df1918101906131ac565b60015b611ea057611e006131c9565b806308c379a003611e395750611e146131e5565b80611e1f5750611e3b565b8060405162461bcd60e51b81526004016102f291906122b7565b505b60405162461bcd60e51b815260206004820152603460248201527f455243313135353a207472616e7366657220746f206e6f6e2d455243313135356044820152732932b1b2b4bb32b91034b6b83632b6b2b73a32b960611b60648201526084016102f2565b6001600160e01b0319811663bc197c8160e01b14611b625760405162461bcd60e51b81526004016102f29061326e565b60408051600180825281830190925260609160009190602080830190803683370190505090508281600081518110611f0a57611f0a612f2f565b602090810291909101015292915050565b6001600160a01b0384163b15611a4f5760405163f23a6e6160e01b81526001600160a01b0385169063f23a6e6190611f5f90899089908890889088906004016132b6565b6020604051808303816000875af1925050508015611f9a575060408051601f3d908101601f19168201909252611f97918101906131ac565b60015b611fa657611e006131c9565b6001600160e01b0319811663f23a6e6160e01b14611b625760405162461bcd60e51b81526004016102f29061326e565b6040805161036081019091526060610320820190815260006103408301528190815260200161202160405180604001604052806060815260200160006001600160a01b031681525090565b81526020016060815260200160608152602001606081526020016060815260200160608152602001606081526020016060815260200160608152602001606081526020016060815260200160608152602001606081526020016060815260200160608152602001606081526020016060815260200160008152602001600081526020016060815260200160008152602001606081526020016000151581526020016000151581525090565b828054828255906000526020600020908101928215612112579160200282015b8281111561211257825182906121029082612fbf565b50916020019190600101906120ec565b5061211e929150612169565b5090565b82805482825590600052602060002090810192821561215d579160200282015b8281111561215d578251825591602001919060010190612142565b5061211e929150612186565b8082111561211e57600061217d828261219b565b50600101612169565b5b8082111561211e5760008155600101612187565b5080546121a790612ea7565b6000825580601f106121b7575050565b601f0160209004906000526020600020908101906121d59190612186565b50565b80356001600160a01b03811681146121ef57600080fd5b919050565b6000806040838503121561220757600080fd5b612210836121d8565b946020939093013593505050565b6001600160e01b0319811681146121d557600080fd5b60006020828403121561224657600080fd5b81356122518161221e565b9392505050565b60006020828403121561226a57600080fd5b5035919050565b6000815180845260005b818110156122975760208185018101518683018201520161227b565b506000602082860101526020601f19601f83011685010191505092915050565b6020815260006122516020830184612271565b6000602082840312156122dc57600080fd5b612251826121d8565b600081518084526020808501945080840160005b83811015612315578151875295820195908201906001016122f9565b509495945050505050565b60208152600061225160208301846122e5565b634e487b7160e01b600052604160045260246000fd5b601f8201601f191681016001600160401b038111828210171561236e5761236e612333565b6040525050565b60405161032081016001600160401b038111828210171561239857612398612333565b60405290565b60006001600160401b038211156123b7576123b7612333565b5060051b60200190565b600082601f8301126123d257600080fd5b813560206123df8261239e565b6040516123ec8282612349565b83815260059390931b850182019282810191508684111561240c57600080fd5b8286015b848110156124275780358352918301918301612410565b509695505050505050565b600082601f83011261244357600080fd5b81356001600160401b0381111561245c5761245c612333565b604051612473601f8301601f191660200182612349565b81815284602083860101111561248857600080fd5b816020850160208301376000918101602001919091529392505050565b600080600080600060a086880312156124bd57600080fd5b6124c6866121d8565b94506124d4602087016121d8565b935060408601356001600160401b03808211156124f057600080fd5b6124fc89838a016123c1565b9450606088013591508082111561251257600080fd5b61251e89838a016123c1565b9350608088013591508082111561253457600080fd5b5061254188828901612432565b9150509295509295909350565b60008151604084526125636040850182612271565b6020938401516001600160a01b0316949093019390935250919050565b600081518084526020808501808196508360051b8101915082860160005b858110156125c85782840389526125b6848351612271565b9885019893509084019060010161259e565b5091979650505050505050565b60208152600082516103208060208501526125f461034085018361254e565b91506020850151601f1980868503016040870152612612848361254e565b9350604087015191508086850301606087015261262f8483612271565b9350606087015191508086850301608087015261264c8483612271565b935060808701519150808685030160a08701526126698483612271565b935060a08701519150808685030160c08701526126868483612271565b935060c08701519150808685030160e08701526126a38483612271565b935060e087015191506101008187860301818801526126c28584612271565b9450808801519250506101208187860301818801526126e18584612271565b9450808801519250506101408187860301818801526127008584612271565b94508088015192505061016081878603018188015261271f8584612271565b94508088015192505061018081878603018188015261273e8584612271565b9450808801519250506101a081878603018188015261275d8584612271565b9450808801519250506101c081878603018188015261277c8584612271565b9450808801519250506101e081878603018188015261279b8584612271565b9450808801519250506102008187860301818801526127ba8584612580565b9450808801519250506102208187860301818801526127d985846122e5565b9450808801519250506102408187860301818801526127f885846122e5565b90880151610260888101919091528801516102808089019190915288015187820383016102a0808a019190915291955092506128348584612271565b9450808801519250506102c08281880152808801519250506102e08187860301818801526128628584612271565b9450808801519250505061030061287c8187018315159052565b90950151151593019290925250919050565b600080604083850312156128a157600080fd5b82356001600160401b03808211156128b857600080fd5b818501915085601f8301126128cc57600080fd5b813560206128d98261239e565b6040516128e68282612349565b83815260059390931b850182019282810191508984111561290657600080fd5b948201945b8386101561292b5761291c866121d8565b8252948201949082019061290b565b9650508601359250508082111561294157600080fd5b5061294e858286016123c1565b9150509250929050565b60006040828403121561296a57600080fd5b604051604081016001600160401b03828210818311171561298d5761298d612333565b8160405282935084359150808211156129a557600080fd5b506129b285828601612432565b8252506129c1602084016121d8565b60208201525092915050565b600082601f8301126129de57600080fd5b813560206129eb8261239e565b6040516129f88282612349565b83815260059390931b8501820192828101915086841115612a1857600080fd5b8286015b848110156124275780356001600160401b03811115612a3b5760008081fd5b612a498986838b0101612432565b845250918301918301612a1c565b803580151581146121ef57600080fd5b600060208284031215612a7957600080fd5b81356001600160401b0380821115612a9057600080fd5b908301906103208286031215612aa557600080fd5b612aad612375565b823582811115612abc57600080fd5b612ac887828601612958565b825250602083013582811115612add57600080fd5b612ae987828601612958565b602083015250604083013582811115612b0157600080fd5b612b0d87828601612432565b604083015250606083013582811115612b2557600080fd5b612b3187828601612432565b606083015250608083013582811115612b4957600080fd5b612b5587828601612432565b60808301525060a083013582811115612b6d57600080fd5b612b7987828601612432565b60a08301525060c083013582811115612b9157600080fd5b612b9d87828601612432565b60c08301525060e083013582811115612bb557600080fd5b612bc187828601612432565b60e0830152506101008084013583811115612bdb57600080fd5b612be788828701612432565b8284015250506101208084013583811115612c0157600080fd5b612c0d88828701612432565b8284015250506101408084013583811115612c2757600080fd5b612c3388828701612432565b8284015250506101608084013583811115612c4d57600080fd5b612c5988828701612432565b8284015250506101808084013583811115612c7357600080fd5b612c7f88828701612432565b8284015250506101a08084013583811115612c9957600080fd5b612ca588828701612432565b8284015250506101c08084013583811115612cbf57600080fd5b612ccb88828701612432565b8284015250506101e08084013583811115612ce557600080fd5b612cf1888287016129cd565b8284015250506102008084013583811115612d0b57600080fd5b612d17888287016123c1565b8284015250506102208084013583811115612d3157600080fd5b612d3d888287016123c1565b8284015250506102408084013581830152506102608084013581830152506102808084013583811115612d6f57600080fd5b612d7b88828701612432565b8284015250506102a08084013581830152506102c08084013583811115612da157600080fd5b612dad88828701612432565b8284015250506102e09150612dc3828401612a57565b828201526103009150612dd7828401612a57565b91810191909152949350505050565b60008060408385031215612df957600080fd5b612e02836121d8565b9150612e1060208401612a57565b90509250929050565b60008060408385031215612e2c57600080fd5b612e35836121d8565b9150612e10602084016121d8565b600080600080600060a08688031215612e5b57600080fd5b612e64866121d8565b9450612e72602087016121d8565b9350604086013592506060860135915060808601356001600160401b03811115612e9b57600080fd5b61254188828901612432565b600181811c90821680612ebb57607f821691505b602082108103612edb57634e487b7160e01b600052602260045260246000fd5b50919050565b6020808252602e908201527f455243313135353a2063616c6c6572206973206e6f7420746f6b656e206f776e60408201526d195c881bdc88185c1c1c9bdd995960921b606082015260800190565b634e487b7160e01b600052603260045260246000fd5b634e487b7160e01b600052601160045260246000fd5b600060018201612f6d57612f6d612f45565b5060010190565b601f821115612fba57600081815260208120601f850160051c81016020861015612f9b5750805b601f850160051c820191505b81811015611a4f57828155600101612fa7565b505050565b81516001600160401b03811115612fd857612fd8612333565b612fec81612fe68454612ea7565b84612f74565b602080601f83116001811461302157600084156130095750858301515b600019600386901b1c1916600185901b178555611a4f565b600085815260208120601f198616915b8281101561305057888601518255948401946001909101908401613031565b508582101561306e5787850151600019600388901b60f8161c191681555b5050505050600190811b01905550565b60208082526025908201527f455243313135353a207472616e7366657220746f20746865207a65726f206164604082015264647265737360d81b606082015260800190565b6020808252602a908201527f455243313135353a20696e73756666696369656e742062616c616e636520666f60408201526939103a3930b739b332b960b11b606082015260800190565b8082018082111561031e5761031e612f45565b60408152600061313360408301856122e5565b828103602084015261314581856122e5565b95945050505050565b6001600160a01b0386811682528516602082015260a06040820181905260009061317a908301866122e5565b828103606084015261318c81866122e5565b905082810360808401526131a08185612271565b98975050505050505050565b6000602082840312156131be57600080fd5b81516122518161221e565b600060033d11156131e25760046000803e5060005160e01c5b90565b600060443d10156131f35790565b6040516003193d81016004833e81513d6001600160401b03816024840111818411171561322257505050505090565b828501915081518181111561323a5750505050505090565b843d87010160208285010111156132545750505050505090565b61326360208286010187612349565b509095945050505050565b60208082526028908201527f455243313135353a204552433131353552656365697665722072656a656374656040820152676420746f6b656e7360c01b606082015260800190565b6001600160a01b03868116825285166020820152604081018490526060810183905260a0608082018190526000906132f090830184612271565b97965050505050505056fea2646970667358221220ad89262d2e097bce53d7cc91ddb492f1542ca678ba315107d0cf44846999ee4b64736f6c63430008110033",
    "linkReferences": {}
  },
  "methodIdentifiers": {
    "balanceOf(address,uint256)": "00fdd58e",
    "balanceOfBatch(address[],uint256[])": "4e1273f4",
    "generateBillOfLading(((string,address),(string,address),string,string,string,string,string,string,string,string,string,string,string,string,string,string[],uint256[],uint256[],uint256,uint256,string,uint256,string,bool,bool))": "96681d6e",
    "getBuyerOrder(address)": "82cc75d4",
    "getCarreirOrder(address)": "1fec06e0",
    "getOrderById(uint256)": "42b50a7a",
    "getSellerOrder(address)": "3afa4991",
    "isApprovedForAll(address,address)": "e985e9c5",
    "safeBatchTransferFrom(address,address,uint256[],uint256[],bytes)": "2eb2c2d6",
    "safeTransferFrom(address,address,uint256,uint256,bytes)": "f242432a",
    "sendBillOfLadingToBuyer(uint256)": "f9422654",
    "sendBillOfLadingToCarreir(uint256)": "44006ffa",
    "setApprovalForAll(address,bool)": "a22cb465",
    "supportsInterface(bytes4)": "01ffc9a7",
    "uri(uint256)": "0e89341c"
  },
  "id": 8
}